:020000021000EC
:10F000000000012033F10100D9F00100996A0400E9
:10F01000DDF00100DFF00100E1F001000000000080
:10F02000000000000000000000000000E3F001000C
:10F03000E5F0010000000000E7F00100E9F0010048
:10F04000D16A0200EDF00100EFF001001D6902003D
:10F05000F3F00100F5F00100615F0200296C02008D
:10F06000FBF00100FDF00100FFF0010001F10100E3
:10F0700003F1010005F1010007F1010009F10100B0
:10F080000BF10100E97F0200E7C0020011F101006D
:10F090002980020015F1010041A5020019F10100CB
:10F0A0001BF101001DF101001FF1010021F1010020
:10F0B00023F1010025F10100000000000000000024
:10F0C00027F1010029F101002BF101002DF10100D0
:08F0D0002FF1010031F10100F4
:10F0D800FEE7FEE7FEE7FEE7FEE7FEE7FEE7FEE700
:10F0E800FEE7FEE7FEE7FEE7FEE7FEE7FEE7FEE7F0
:10F0F800FEE7FEE7FEE7FEE7FEE7FEE7FEE7FEE7E0
:10F10800FEE7FEE7FEE7FEE7FEE7FEE7FEE7FEE7CF
:10F11800FEE7FEE7FEE7FEE7FEE7FEE7FEE7FEE7BF
:10F12800FEE7FEE7FEE7FEE7FEE70348854600F058
:10F13800C5F800F003B87047000001203749384887
:10F148000A1A02D0072291438D46364936480A1AD0
:10F1580006D00722914381F30988022282F314889A
:10F1680032483349334A00F048F833483349344A7F
:10F1780000F043F833483449344A00F03EF8344844
:10F188003449354A00F039F834483549354A00F0F1
:10F1980034F835483549364A00F02FF835483649AD
:10F1A800364A00F02AF836483649374A00F025F83A
:10F1B80036483749002200F02BF8364836490022F5
:10F1C80000F026F835483649091A082903DB0022D9
:10F1D8000260043001601F481F49884205D0026858
:10F1E800043003B4904703BCF7E700208646EC469A
:10F1F800002000212B4A9047FEE7884207D0521A88
:10F2080005D0037801300B700131013AF9D170470C
:10F21800884202D002700130FAE7704700000120EE
:10F2280000FC00200000012000000120C8AC040000
:10F23800182B0020EC2B0020B0F20100B0F20100E6
:10F24800CC7F0400C8AC0400182B0020182B002029
:10F25800CC7F0400CC7F0400CC7F0400CC7F04006A
:10F26800CC7F0400CC7F0400CC7F0400CC7F04005A
:10F27800C8AC04009CAD0400EC2B0020EC2B002053
:10F288009CAD0400EC2B0020FC2B0020FC2B002064
:10F29800047200200472002004720020047200200E
:08F2A80004760020C90F0200EA
:10F2B000024B034A1A6000BF704700BF182B0020A2
:10F2C0000090D00308B500F00DF90346002B06D0DE
:10F2D000744A754B1B681B0A03F01F03136000F090
:10F2E0002DF90346002B02D0704B714A1A6000F0D2
:10F2F00041F90346002B06D06E4A6F4B1B685B0B2F
:10F3000003F00703136000F061F90346002B05D0FA
:10F310006A4A6A4BDB6823F08073D36000F072F9AD
:10F320000346002B0ED04FF080430022C3F80C217F
:10F330004FF080430022C3F810214FF08043002299
:10F34000C3F8382500F08AF90346002B02D05C4B45
:10F3500003221A6000F09EF90346002B0BD0594B94
:10F3600005221A60584B01221A60584B00221A607D
:10F37000574B3F221A6000F0A9F90346002B76D0C4
:10F38000544A4FF08053D3F80434C2F82035514A20
:10F390004FF08053D3F80834C2F824354D4A4FF06B
:10F3A0008053D3F80C34C2F828354A4A4FF08053C2
:10F3B000D3F81034C2F82C35464A4FF08053D3F8B6
:10F3C0001434C2F83035434A4FF08053D3F8183420
:10F3D000C2F834353F4A4FF08053D3F81C34C2F89A
:10F3E00040353C4A4FF08053D3F82034C2F84435BE
:10F3F000384A4FF08053D3F82434C2F84835354AA0
:10F400004FF08053D3F82834C2F84C35314A4FF0CE
:10F410008053D3F82C34C2F850352E4A4FF0805325
:10F42000D3F83034C2F854352A4A4FF08053D3F819
:10F430003434C2F86035274A4FF08053D3F838345B
:10F44000C2F86435234A4FF08053D3F83C34C2F8F5
:10F450006835204A4FF08053D3F84034C2F86C35F9
:10F460001C4A4FF08053D3F84434C2F8703500F092
:10F4700049F90346002B05D0174A184B1B6803F0C7
:10F480004F031360164A164BD3F8883043F47003C9
:10F49000C2F88830BFF34F8FBFF36F8FFFF708FFBD
:10F4A00000BF08BD403501402403001074C0074070
:10F4B0000DF0ADBA3C05004044020010F0ED00E054
:10F4C000A0050040105600408856004018560040E5
:10F4D0001456004000C00040E40E004058020010E6
:10F4E00000ED00E0124B1B68DBB2062B1DD1114B67
:10F4F0001B6803F00F03002B17D10F4B1B6803F0A1
:10F50000F003302B01D1012310E00B4B1B6803F0FB
:10F51000F003402B01D1012308E0074B1B6803F0E7
:10F52000F003502B01D1012300E00023184670475F
:10F53000E00F00F0E40F00F0E80F00F00A4B1B684A
:10F54000DBB2062B0DD1094B1B6803F00F03002B18
:10F5500007D1074B1B6803F0F003302B01D10123C7
:10F5600000E0002318467047E00F00F0E40F00F0C1
:10F57000E80F00F0124B1B68DBB2062B1DD1114BBC
:10F580001B6803F00F03002B17D10F4B1B6803F010
:10F59000F003302B01D1012310E00B4B1B6803F06B
:10F5A000F003402B01D1012308E0074B1B6803F057
:10F5B000F003502B01D1012300E0002318467047CF
:10F5C000E00F00F0E40F00F0E80F00F00A4B1B68BA
:10F5D000DBB2062B0DD1094B1B6803F00F03002B88
:10F5E00007D1074B1B6803F0F003302B01D1012337
:10F5F00000E0002318467047E00F00F0E40F00F031
:10F60000E80F00F0124B1B68DBB2062B1DD1114B2B
:10F610001B6803F00F03002B17D10F4B1B6803F07F
:10F62000F003302B01D1012310E00B4B1B6803F0DA
:10F63000F003402B01D1012308E0074B1B6803F0C6
:10F64000F003502B01D1012300E00023184670473E
:10F65000E00F00F0E40F00F0E80F00F00A4B1B6829
:10F66000DBB2062B0DD1094B1B6803F00F03002BF7
:10F6700007D1074B1B6803F0F003302B01D10123A6
:10F6800000E0002318467047E00F00F0E40F00F0A0
:10F69000E80F00F00A4B1B68DBB2062B0DD1094BBB
:10F6A0001B6803F00F03002B07D1074B1B6803F007
:10F6B000F003302B01D1012300E0002318467047EE
:10F6C000E00F00F0E40F00F0E80F00F00A4B1B68B9
:10F6D000DBB2062B0DD1094B1B6803F00F03002B87
:10F6E00007D1074B1B6803F0F003502B01D1012316
:10F6F00000E0002318467047E00F00F0E40F00F030
:10F70000E80F00F0124B1B68DBB2062B1DD1114B2A
:10F710001B6803F00F03002B17D10F4B1B6803F07E
:10F72000F003302B01D1012310E00B4B1B6803F0D9
:10F73000F003402B01D1012308E0074B1B6803F0C5
:10F74000F003502B01D1012300E00023184670473D
:10F75000E00F00F0E40F00F0E80F00F07047704792
:10F7600082B003468DF8073008499DF907305B09E0
:10F770009DF8072002F01F02012000FA02F2603318
:10F7800041F8232000BF02B0704700BF00E100E055
:10F79000BFF34F8F0549054BDB6803F4E062044B70
:10F7A0001343CB60BFF34F8F00BFFDE700ED00E0D8
:10F7B0000400FA053EDF704700BF184682B0019092
:10F7C0004FF0A043184602B0704700B585B00190D5
:10F7D000084611461A4603468DF803300B468DF84D
:10F7E000023013468DF8013001AB1846FFF7E6FFF3
:10F7F0000390019A9DF803109DF802305B001943B5
:10F800009DF801309B0019439DF818301B021943E5
:10F810009DF81C301B041943039B02F5E07243F86A
:10F82000221000BF05B05DF804FB00B585B0039061
:10F830000B468DF80B309DF80B200023019300231D
:10F8400000931346002200210398FFF7BEFF00BF7C
:10F8500005B05DF804FB00B585B0019001AB18461A
:10F86000FFF7ACFF0390039800F00AF80246019BF3
:10F8700022FA03F303F00103184605B05DF804FB18
:10F8800082B00190019BD3F81035184602B0704742
:10F8900084B00190244B0393019B002B40D0234B59
:10F8A0001A680399019B00BF00BF00BF00BF00BFE3
:10F8B00000BF00BF00BF8A422FD000BF00BF00BF03
:10F8C00000BF00BF00BF00BF00BF00BF00BF00BF40
:10F8D00000BF00BF00BF00BF00BF00BF00BF00BF30
:10F8E00000BF00BF00BF00BF00BF00BF00BF00BF20
:10F8F00000BF00BF00BF00BF00BF00BF00BF00BF10
:10F9000000BF00BF00BF00BF00BF00BF00BF00BFFF
:10F9100000BF00BF00BF00BF00BF013BC3D10193C8
:10F9200000BF04B0704700BF0024F400182B002073
:10F9300000B583B00190019B4FF47A7202FB03F390
:10F940001846FFF7A5FF00BF03B05DF804FB82B0C7
:10F950004FF010235B690193019BB3F1FF3F04D18A
:10F960004FF080535B691B0300E0019B184602B017
:10F9700070470000024BD3F804351846704700BFAB
:10F9800000B0004000B585B00190019B0D4A9B1A64
:10F990000D4AA2FB03231B090393039B092B0BD9DD
:10F9A0007B460293094B1B68002B04D0074B1B6856
:10F9B0000298984700E000DE039B184605B05DF80A
:10F9C00004FB00BF542C0020CDCCCCCC284E002012
:10F9D00000B58BB00790B0EE407AF0EE607A0B463F
:10F9E0008DED057ACDED067AADF81230BDF8123006
:10F9F0001A466E4903200AF086FEDDED057AF5EE23
:10FA0000C07AF1EE10FA0AD5DDED057ABFEE007A84
:10FA1000F4EEC77AF1EE10FA01DD654A00E0654ABE
:10FA2000DDED057AFDEEE77A17EE901ADDED057A49
:10FA3000F5EEC07AF1EE10FA12DD9DED057ADDEDFE
:10FA4000057AFDEEE77AF8EEE77A77EE677A9FEDD2
:10FA50005A7A67EE877AFDEEE77A17EE903A11E070
:10FA6000DDED057AFDEEE77AB8EEE77ADDED057AB1
:10FA700077EE677A9FED507A67EE877AFDEEE77A48
:10FA800017EE903A00930B464C4903200AF066FEAD
:10FA9000DDED067AF5EEC07AF1EE10FA0AD5DDED6D
:10FAA000067ABFEE007AF4EEC77AF1EE10FA01DDC5
:10FAB0003F4A00E03F4ADDED067AFDEEE77A17EEB9
:10FAC000901ADDED067AF5EEC07AF1EE10FA12DD4D
:10FAD0009DED067ADDED067AFDEEE77AF8EEE77A3F
:10FAE00077EE677A9FED347A67EE877AFDEEE77AF4
:10FAF00017EE903A11E0DDED067AFDEEE77AB8EE0A
:10FB0000E77ADDED067A77EE677A9FED2B7A67EE7E
:10FB1000877AFDEEE77A17EE903A00930B46284974
:10FB200003200AF01BFE0798FFF72CFF0990DDED7C
:10FB3000067AFDEEE77ACDED037A9DF80C305BB2E4
:10FB4000DBB28DF820309DED067ADDED067AFCEE15
:10FB5000E77ACDED037A9DF80C30DBB207EE903AF0
:10FB6000F8EEE77A77EE677A9FED137A67EE877A99
:10FB7000FCEEE77ACDED037A9DF80C30DBB28DF820
:10FB80002130DDED057AFCEEE77ACDED037A9DF8C4
:10FB90000C30DBB28DF8223008AA03230999062025
:10FBA00003F002FE00BF0BB05DF804FBF07F040021
:10FBB000288004002C8004000000C842308004002B
:10FBC0005080040000B593B00023ADF84630012307
:10FBD000099309AB1946524820F0C6FD0F900F9BC0
:10FBE000002B04D04F4AAE210F9807F0BBFA012337
:10FBF00009934B4B1B8809AA4B49184620F0FAFE83
:10FC00000E900E9B002B04D0464AB0210E9807F0B0
:10FC1000A9FA0C23099309AA02AB1146184620F051
:10FC20006BFB0D900D9B002B04D03E4AB5210D9827
:10FC300007F098FA00238DF845300023109365E013
:10FC4000109B5B0012AA134433F8403C6A461146ED
:10FC5000184620F0F1FA0C900C9B002B04D0314A8E
:10FC6000BA210C9807F07EFA9DF80030012B2ED1B6
:10FC7000BDF80200BDF846305B002C4A134419461B
:10FC800020F02CFE0346002B21D1BDF84630274A38
:10FC900032F813304FF6FF72934218D0BDF8463059
:10FCA0005B00234A1A446B461146184620F080FB3D
:10FCB0000B900B9B002B04D01A4AC4210B9807F021
:10FCC00051FABDF846300133ADF846301BE09DF8DF
:10FCD0000030032B17D19DF845305B00154A1A44BC
:10FCE0006B461146184620F063FB0A900A9B002BD6
:10FCF00004D00C4AC9210A9807F034FA9DF845301F
:10FD000001338DF84530109B01331093099B109AF5
:10FD10009A4295D3BDF84630184613B05DF804FBFF
:10FD2000242C002074800400262C0020282C002085
:10FD30003C2C0020502C002010B584B0524B1B6886
:10FD400003F48043002B2ED0504B1B68032B2ADD7D
:10FD50002F214F4827F0E1FC0346002B06D02F212E
:10FD60004B4827F0DAFC03465C1C0EE05C21484857
:10FD700027F0D3FC0346002B06D05C21444827F033
:10FD8000CCFC03465C1C00E0414CFFF7F3FD02464F
:10FD9000404B1B880193404B00931346DB222146C6
:10FDA00004200FF0F5FE3B4B1B8819463B4A0B46DF
:10FDB0009B000B449B0013441A88364B1B88194642
:10FDC000374B33F81130194610461CF0D3FF03901F
:10FDD000039B002B04D02E4ADF21039807F0C2F9C1
:10FDE0001CF0C4FD002302932A4B1B88194602AA6B
:10FDF0000423012003F0D8FC264B1B8801339AB260
:10FE0000244B1A80234B1B88092B08D8254B1B88B1
:10FE100003F580739BB2184603F02CFA31E01A4BBD
:10FE20001B6803F48043002B2BD0184B1B68032B5B
:10FE300027DD2F21164827F070FC0346002B06D043
:10FE40002F21134827F069FC03465C1C0EE05C215F
:10FE50000F4827F062FC0346002B06D05C210C48BB
:10FE600027F05BFC03465C1C00E0094CFFF782FDB9
:10FE700002460D4B00931346EC22214604200FF05E
:10FE800087FE00BF04B010BD2C2B0020302B0020BB
:10FE900074800400562D0020EC800400542C0020B7
:10FEA0003C2C0020542D00201481040000B585B0A6
:10FEB0000023ADF80E300023029322E04FF6FF73CB
:10FEC000ADF806301349029A13469B0013449B0079
:10FED0000B441B880DF10602114618461CF09EFFCC
:10FEE0000346002B10D1BDF806304FF6FF72934247
:10FEF0000AD0BDF80E300133ADF80E30029B01334D
:10FF00000293029B092BD9D9BDF80E30184605B0D3
:10FF10005DF804FB542C0020F0B58FB00B9009A8BD
:10FF200080E80600ADF822300B98FFF72BFD0D900E
:10FF300009AB0C932C4B1B6803F48043002B49D076
:10FF40002A4B1B68032B45DD2F21294827F0E5FBB1
:10FF50000346002B06D02F21254827F0DEFB034661
:10FF60005C1C0EE05C21224827F0D7FB0346002BE7
:10FF700006D05C211E4827F0D0FB03465C1C00E045
:10FF80001B4CFFF7F7FC07460C9B1B781A460C9B93
:10FF900001331B7819460C9B02331B7818460C9BC7
:10FFA00003331B781D460C9B04331B781E46BDF89B
:10FFB00022300793069605950490039102920D9BBB
:10FFC00001930C4B00933B4640F20B122146042058
:10FFD0000FF0DEFD09AA05230D99072003F0E4FBCD
:10FFE00000BF0FB0F0BD00BF2C2B0020302B002035
:10FFF000748004003081040010B598B09C4B1B68DD
:020000022000DC
:1000000003F48043002B2CD09A4B1B68032B28DD74
:100010002F21994827F081FB0346002B06D02F2182
:10002000954827F07AFB03465C1C0EE05C21924861
:1000300027F073FB0346002B06D05C218E4827F087
:100040006CFB03465C1C00E08B4CFFF793FC024604
:100050008A4B0093134640F21112214604200FF000
:1000600097FD1FF039FF1CF02DFD854B4FF6FF72F9
:100070001A80844B4FF6FF721A80002317930EE00C
:10008000814A179B4FF6FF7122F813107F4A179B86
:100090004FF6FF7122F81310179B01331793179B2C
:1000A000092BEDD97A4B4FF6FF721A80784B4FF639
:1000B000FF725A80774821F0F3FB1490149B002BB9
:1000C00005D06D4A40F22111149807F04BF8724A9E
:1000D0000021724821F0B0FE1390139B002B05D035
:1000E000654A4FF49171139807F03CF8002316937A
:1000F0002DE06B49169A13469B0013449B000B445A
:100100000433684A1A606649169A13469B001344E2
:100110009B000B440833644A1A60169A13469B00EE
:1001200013449B005E4A1344169A92B21146184635
:1001300027F06EF81290129B002B05D04E4A4FF418
:100140009471129807F00EF8169B01331693169BC4
:100150000B2BCED91FF03EFE0346002B06D0FFF737
:1001600031FD03461A46514B1A804EE0504B1B6836
:10017000029302AB18461FF0C5FE1190119B002B95
:1001800005D03D4A40F23311119806F0EBFF40498B
:100190004CF6FE201FF032FF1090109B002B05D074
:1001A000354A4FF49A71109806F0DCFF41494CF63D
:1001B000FF201FF023FF0F900F9B002B05D02E4A2E
:1001C00040F235110F9806F0CDFF2D4A3A49002034
:1001D00020F053F90E900E9B002B05D0264A4FF4C9
:1001E0009B710E9806F0BEFF254B1988254B334AAC
:1001F000002020F0A5FB0D900D9B002B05D01E4A82
:1002000040F237110D9806F0ADFF1CF059FB034684
:10021000002B06D0FFF74AFE03461A46284B1A80E9
:10022000FAE01E4B1A88174B1B88194610461CF023
:1002300071FE0C900C9B002B05D00F4A40F241112F
:100240000C9806F08FFF154B1A880E4B1B88194629
:1002500010461CF0B9FE0B900B9B002B05D0064AF4
:100260004FF4A1710B9806F07DFF002315935CE01D
:100270002C2B0020302B0020748004008881040087
:10028000242C0020262C0020282C00203C2C002090
:10029000502C00209932020071040200442D0020ED
:1002A000542C002019FF0100D1F90100542D002029
:1002B000AC810400522C0020CC7F0400DC7F0400C1
:1002C000562D00206449159A13469B0013449B0049
:1002D0000B441A88614B1B88194610461CF01AFE05
:1002E0000A900A9B002B05D05D4A40F247110A98FC
:1002F00006F038FF5849159A13469B0013449B009B
:100300000B441A88554B1B88194610461CF05CFE9E
:100310000990099B002B05D0514A4FF4A47109980C
:1003200006F020FF159B01331593159B092BC9D9A6
:10033000494BB3F8C820494B1B88194610461CF09E
:10034000E9FD0890089B002B05D0454A40F24B116F
:10035000089806F007FF404BB3F8C8203F4B1B88B6
:10036000194610461CF030FE0790079B002B05D065
:100370003B4A4FF4A671079806F0F4FE364BB3F8EB
:10038000C820384B1B88194610461CF0F3FC069019
:10039000069B002B05D0324A40F24D11069806F01C
:1003A000E1FE2D4BB3F8DC202C4B1B881946104680
:1003B0001CF0B0FD0590059B002B05D0284A40F2AB
:1003C0004F11059806F0CEFE234BB3F8DC20234BEB
:1003D0001B88194610461CF0F7FD0490049B002B67
:1003E00005D01F4A4FF4A871049806F0BBFE1A4BC3
:1003F000B3F8DC201B4B5B88194610461CF0BAFC96
:100400000390039B002B05D0154A40F2511103982D
:1004100006F0A8FE1CF0AAFA03F024F9124B1A8881
:10042000124B1B889A4208D20F4B1B8803F580732E
:100430009BB2184602F000FF0BE00C4B1B88092B07
:1004400007D80A4B1B8803F580739BB2184602F04D
:1004500011FF00BF18B010BD542C0020262C002026
:1004600074800400502C0020562D0020542D0020B4
:1004700010B586B005900491049B1B78002B00D02A
:1004800040E0224B1B6803F48043002B39D0204B03
:100490001B68032B35DD2F211E4827F03EF903464C
:1004A000002B06D02F211B4827F037F903465C1C90
:1004B0000EE05C21174827F030F90346002B06D0E8
:1004C0005C21144827F029F903465C1C00E0114C1C
:1004D000FFF750FA049B5B685B881A46049B1B7B02
:1004E0001946049B5B6893F91430039302910192BF
:1004F000094B009303464FF4B472214604200FF0D9
:1005000047FB00BF00BF06B010BD00BF2C2B002072
:10051000302B002074800400B081040010B586B038
:100520000D230393374B1B6803F48043002B2FD01C
:10053000354B1B68032B2BDD2F21344827F0EDF8BA
:100540000346002B06D02F21304827F0E6F803465B
:100550005C1C0EE05C212D4827F0DFF80346002BE1
:1005600006D05C21294827F0D8F803465C1C00E03F
:10057000264CFFF7FFF90246254B1B880193254BBC
:100580000093134640F27712214604200FF000FB3F
:100590001F4B1B88194603AA0423012003F004F90A
:1005A0001B4B1B881A461C4B33F8123018461FF0A1
:1005B00079FD0590059B002B05D0144A4FF4BD71C1
:1005C000059806F0CFFD124B1B881A46134B33F8E3
:1005D0001230184620F044F90490049B002B05D0FB
:1005E0000A4A40F27B11049806F0BCFD0C4B1B88B4
:1005F00003F580739BB2184602F03CFE00BF06B0C4
:1006000010BD00BF2C2B0020302B00207480040074
:10061000562D0020E88104003C2C0020282C0020CE
:10062000542D002010B58AB00390584B1B88092B1D
:100630000BD97B460993564B1B68002B04D0544BB7
:100640001B680998984700E000DE524B1B6803F4D2
:100650008043002B2FD0504B1B68032B2BDD2F2109
:100660004E4827F05AF80346002B06D02F214B485E
:1006700027F053F803465C1C0EE05C21474827F046
:100680004CF80346002B06D05C21444827F045F87F
:1006900003465C1C00E0414CFFF76CF90246039BEB
:1006A0005B8A01933E4B0093134640F2851221462C
:1006B00004200FF06DFA039B588A3A4B1B885B00AD
:1006C000394A134419461FF099FC0890089B002BE7
:1006D00005D0324A4FF4C471089806F043FD039BDD
:1006E000588A324B1988039B9C682E4B1B885B00F1
:1006F0002F4A1344224620F055F80790079B002B01
:1007000005D0264A40F28911079806F02BFD254BAB
:100710001B881A46264B33F81230184621F088F908
:100720000690069B002B05D01C4A4FF4C671069814
:1007300006F018FD1B4B1B881A461D4B33F8122080
:10074000184B1B881946184B33F8113019461046C0
:1007500021F0EEF80590059B002B05D00F4A4FF4D1
:10076000C771059806F0FEFC0E4B1B8801339AB248
:100770000C4B1A80054B1B8803F580739BB21846FF
:1007800002F05AFD00BF0AB010BD00BF562D002078
:10079000284E00202C2B0020302B002074800400D9
:1007A0000C820400542D00203C2C0020242C00201E
:1007B000282C002000B583B00190002001F0AEFB92
:1007C00000BF03B05DF804FB10B59EB00590049126
:1007D0001346ADF80E30049B1B781B021AB2049B23
:1007E00001331B781BB213431BB2ADF87630BDF852
:1007F00076304FF6FF72934202D10A23ADF876307D
:10080000049B02331B78013B062B00F27A8201A283
:1008100052F823F031080200A50802006B0902001B
:10082000E50A0200DF0B0200D30C0200F30C020009
:10083000A34B1B6803F48043002B2CD0A14B1B68F7
:10084000032B28DD2F21A04826F067FF0346002B4D
:1008500006D02F219C4826F060FF03465C1C0EE06A
:100860005C21994826F059FF0346002B06D05C21F5
:10087000954826F052FF03465C1C00E0924CFFF7BF
:1008800079F80246914B009313464FF4D5722146F6
:1008900004200FF07DF9049B03331B78184601F008
:1008A000EBFA33E2BDF80E30032B0BD1BDF87630F6
:1008B000BDF8762086498A5C82F00102D1B2844A72
:1008C000D15405E0BDF87630049AD178804AD154ED
:1008D000BDF8762013469B0013449B007D4A981870
:1008E000BDF876307A4AD15C26F0F7FC03461C93BB
:1008F000734B1B6803F48043002B2ED0714B1B6895
:10090000032B2ADD2F21704826F007FF0346002B1A
:1009100006D02F216C4826F000FF03465C1C0EE039
:100920005C21694826F0F9FE0346002B06D05C21C5
:10093000654826F0F2FE03465C1C00E0624CFFF7BF
:1009400019F802461C9B0193634B009313464FF426
:10095000DA72214604200FF01BF9BDF876101CAAAC
:100960000423052002F020FFD0E1049BD91CBDF830
:100970000E30033B1A461AAB184626F0E9FEBDF8C6
:1009800076300A2B03D0BDF876300B2B4BD1BDF857
:10099000762013469B0013449B004E4A981803236D
:1009A0001AAA06CA26F0CAFC03461C93444B1B68CD
:1009B00003F48043002B2ED0424B1B68032B2ADD0F
:1009C0002F21414826F0A9FE0346002B06D02F21F7
:1009D0003D4826F0A2FE03465C1C0EE05C213A482E
:1009E00026F09BFE0346002B06D05C21364826F0FD
:1009F00094FE03465C1C00E0334CFEF7BBFF02464E
:100A00001C9B0193354B009313464FF4DE72214635
:100A100004200FF0BDF8BDF876101CAA04230420B2
:100A200002F0C2FE72E1BDF8762013469B0013442B
:100A30009B00284A98181AAB93E8060026F016FC8B
:100A400003461C931E4B1B6803F48043002B2ED0DF
:100A50001C4B1B68032B2ADD2F211B4826F05DFE53
:100A60000346002B06D02F21174826F056FE0346DA
:100A70005C1C0EE05C21144826F04FFE0346002B60
:100A800006D05C21104826F048FE03465C1C00E0BE
:100A90000D4CFEF76FFF02461C9B0193104B009319
:100AA00013464FF4E172214604200FF071F8BDF8AF
:100AB00076101CAA0423042002F076FE26E100BF73
:100AC0002C2B0020302B0020748004003C8204007A
:100AD000582D0020542C00205882040078820400F5
:100AE000A08204004FF6FF73ADF85E30BDF87620AB
:100AF000884913469B0013449B000B441B880DF14F
:100B00005E02114618461CF089F9BDF85E304FF6BA
:100B1000FF72934200F0F780BDF85E3015AA1146CF
:100B200018461FF089FBBDF876307B4A32F8130077
:100B3000BDF87630794A32F81330194620F0F8FEC5
:100B400003238DF84C304CF6FF23ADF84E3059237B
:100B5000ADF84A300223ADF84830BDF85600129B7C
:100B600013AA06CA21F05AF803461C936C4B1B6863
:100B700003F48043002B00F0C6806A4B1B68032BF4
:100B800040F3C1802F21684826F0C7FD0346002BA3
:100B900006D02F21644826F0C0FD03465C1C0EE001
:100BA0005C21614826F0B9FD0346002B06D05C218C
:100BB0005D4826F0B2FD03465C1C00E05A4CFEF78F
:100BC000D9FE02461C9B0193584B0093134640F2FA
:100BD000D912214604200EF0DBFF00BF93E04FF650
:100BE000FF73ADF83E30BDF876204A4913469B00AE
:100BF00013449B000B441B880DF13E02114618461E
:100C00001CF00CF9BDF83E304FF6FF7293427CD0D9
:100C1000BDF83E300DAA114618461FF00DFBBDF879
:100C200076303D4A32F81300BDF876303B4A32F850
:100C30001330194620F07CFE03238DF82C304CF63F
:100C4000FF23ADF82E305923ADF82A300223ADF83A
:100C50002830BDF836000A9B0BAA06CA21F011F80D
:100C600003461C932E4B1B6803F48043002B4CD08F
:100C70002C4B1B68032B48DD2F212B4826F04DFD04
:100C80000346002B06D02F21274826F046FD0346B9
:100C90005C1C0EE05C21244826F03FFD0346002B3F
:100CA00006D05C21204826F038FD03465C1C00E09D
:100CB0001D4CFEF75FFE02461C9B01931C4B0093EC
:100CC000134640F2EF12214604200EF061FF00BFF0
:100CD0001BE0184A0021184807F0E0F9174B0022E2
:100CE0004FF42031184607F009FA012001F016F9F7
:100CF0000CE0049B03331B78184601F057FA00BF41
:100D000004E000BF02E000BF00E000BF00BF1EB073
:100D100010BD00BF542C0020282C00203C2C0020AB
:100D20002C2B0020302B002074800400BC82040097
:100D3000E8820400B5070200EC7F0400642D002067
:100D400070B58AB0079006910592059B0993099B9F
:100D50005B68184609F0C0FC0546099B1B881E46C7
:100D6000099B9C68099B9B6818460AF07DF803461E
:100D7000184609F0B1FC03460393029401960095CE
:100D8000069B079A0749012009F001FD0520FEF79F
:100D9000CFFD059A0699079806F0FCF900BF0AB046
:100DA00070BD00BF1483040000B587B0F1EE103AA7
:100DB0000193019B23F09F030293029BE1EE103A03
:100DC000F1EE103A03932620FEF7CAFCFEF7F2FC80
:100DD0000590059B0493049B002B05D0044A4FF417
:100DE0000D71049806F0BEF900BF07B05DF804FB72
:100DF0007480040000B583B00190019B1B78012B27
:100E000009D0022B11D0002B00D015E00C49032093
:100E100009F068FC10E00B49032009F063FC052091
:100E2000FEF786FDFEF7B4FC06E00749032009F053
:100E300059FCFEF7ADFC00BF00BF03B05DF804FB3A
:100E40006C83040094830400C083040000B589B05F
:100E50000E490F4802F0E2FC0E4B00930C4B01933D
:100E6000052302936B46184600F054FF0790079B3A
:100E70000693069B002B05D0074A40F27521069881
:100E800006F070F900BF09B05DF804FBC907020065
:100E9000FC2B0020F50D02007480040000B587B023
:100EA00003460A468DF8073013468DF806309DF844
:100EB0000630012B06D11B4B1B7883F00103DAB2FD
:100EC000184B1A7004AB00221A601A7101238DF8B6
:100ED0001030FF238DF81130FF238DF81230FF23DF
:100EE0008DF8133002AB00221A601A7101238DF8BD
:100EF00008309DF807301E2B10D10A4B1B78012BB0
:100F000006D1032304AA06CA074826F017FA05E00B
:100F1000032302AA06CA044826F010FA00BF07B04D
:100F20005DF804FB842D00201C2D002000B585B049
:100F300004F02CFF034683F00103DBB2002B13D037
:100F400004F0DCFE0390039B002B0DD0164809F043
:100F5000C3FB0246039B00934FF4297313490220FD
:100F600009F0FCFB039B1AE040F266620121104885
:100F700006F064F80390039B002B0DD00A4809F09B
:100F8000ABFB0246039B00934FF42C7307490220EE
:100F900009F0E4FB039B02E006F0C2F803461846A2
:100FA00005B05DF804FB00BF74800400E483040016
:100FB000D084040000B583B06420FEF7B9FC00BF04
:100FC00003B05DF804FB000010B58AB0002009F002
:100FD00033FB08908549032009F084FB03211E2080
:100FE000FEF723FC089B0793079B002B05D0804A44
:100FF00040F2E721079806F0B5F81E20FEF72BFC1B
:101000000346002B25D104238DF81B30FEF79FFCEF
:101010000346A3F5E0430593FEF799FC03461A4601
:101020009DF81B301B03D31AA3F5E043099306E098
:10103000099805F021FF099B03F580530993059A50
:10104000099B9A42F4D26B49032009F04BFBFEF74F
:101050009FFB694A04214FF4C0400EF083FD674AAC
:101060003C21082006F03AF90490049B0393039B6B
:10107000002B05D05E4A40F2F921039806F072F881
:1010800006F0D8FF0890089B0293029B002B05D026
:10109000574A40F2FB21029806F064F8FFF78AFFF6
:1010A000FFF7D4FEFFF742FF554B1B6803F4804364
:1010B000002B2CD0534B1B68032B28DD2F214C48D1
:1010C00026F02BFB0346002B06D02F21484826F0A4
:1010D00024FB03465C1C0EE05C21454826F01DFB0A
:1010E0000346002B06D05C21414826F016FB034640
:1010F0005C1C00E03E4CFEF73DFC0246424B009378
:1011000013464FF44072214604200EF041FD25F0B5
:1011100005FD3B4B1B6803F48043002B2CD0394B5F
:101120001B68032B28DD2F21314826F0F6FA0346F1
:10113000002B06D02F212E4826F0EFFA03465C1C28
:101140000EE05C212A4826F0E8FA0346002B06D080
:101150005C21274826F0E1FA03465C1C00E0244CA1
:10116000FEF708FC0246294B0093134640F2023278
:10117000214604200EF00CFDFEF73EFF204B1B68BD
:1011800003F48043002B2CD01E4B1B68032B28DD5F
:101190002F21174826F0C1FA0346002B06D02F2135
:1011A000134826F0BAFA03465C1C0EE05C21104896
:1011B00026F0B3FA0346002B06D05C210C4826F03B
:1011C000ACFA03465C1C00E0094CFEF7D3FB024678
:1011D0000F4B009313464FF44172214604200EF04A
:1011E000D7FC06F041F9FFF7DFFDFAE72884040099
:1011F000748004006C84040029FB0200882D002008
:101200002C2B0020302B002098840400AC84040098
:10121000BC84040012DF704700BF18466DDF7047C2
:1012200000BF184600B58FB003900DF12F0318468C
:10123000FFF7F0FF0C900C9B002B0CD0334809F00B
:101240004BFA02460C9B00933A233149022009F0E5
:1012500085FA0C9B55E09DF82F30002B01D102231D
:101260004FE00AAB1846FFF7D9FF0C900C9B002B00
:101270000CD0264809F030FA02460C9B0093432319
:101280002349022009F06AFA0C9B3AE005AB0022E0
:101290001A605A609A60DA601A8206238DF8373035
:1012A00025E09DF83730062B0AD005AB184626F00E
:1012B000CFFA024605AB13441649184626F0EAF960
:1012C00005AB184626F0C4FA024605AB98189DF8FF
:1012D0003730013B0EAA134413F80F3C1A460E494F
:1012E00026F0D8F99DF83730013B8DF837309DF85E
:1012F0003730002BD5D105AB1946039826F086FA76
:10130000002318460FB05DF804FB00BFD88404002A
:10131000488504009C850400A08504007ADF70479E
:1013200000BF18467CDF704700BF18467FDF70475C
:1013300000BF18468FDF704700BF1846A9DF70470F
:1013400000BF1846ADDF704700BF184669DF704721
:1013500000BF184666DF704700BF184631DF704790
:1013600000BF18463DDF704700BF184684B00190AB
:10137000244B0393019B002B40D0234B1A68039905
:10138000019B00BF00BF00BF00BF00BF00BF00BF88
:1013900000BF8A422FD000BF00BF00BF00BF00BF08
:1013A00000BF00BF00BF00BF00BF00BF00BF00BF45
:1013B00000BF00BF00BF00BF00BF00BF00BF00BF35
:1013C00000BF00BF00BF00BF00BF00BF00BF00BF25
:1013D00000BF00BF00BF00BF00BF00BF00BF00BF15
:1013E00000BF00BF00BF00BF00BF00BF00BF00BF05
:1013F00000BF00BF00BF013BC3D1019300BF04B0D9
:10140000704700BF0024F400182B002000B583B003
:101410000190019B4FF47A7202FB03F31846FFF729
:10142000A5FF00BF03B05DF804FB000000B583B06A
:1014300001900091009B1B78012B09D0022B02D058
:10144000002B0AD00EE00C49032009F04BF90EE006
:101450000A49032009F046F909E00949032009F087
:1014600041F904E00749022009F03CF900BF00BF40
:1014700003B05DF804FB00BF208704006087040010
:101480009C870400DC87040000B587B09DF8043019
:101490006FF303038DF804309DF804306FF30713E6
:1014A0008DF804301B4826F0D3F903469AB201ABFD
:1014B00018491846FFF736FF0590059B0493049BD7
:1014C000002B04D0144A8A21049805F04BFE02AB8D
:1014D00008220021184626F065F94623ADF80830A9
:1014E0009623ADF80A300023ADF80C304FF4A0730A
:1014F000ADF80E3002AB1846FFF710FF0590059BC4
:10150000002B01D0059B00E00023184607B05DF8D2
:1015100004FB00BF188804002488040000B583B0D1
:101520000190019B1B78002B04D10849012009F090
:10153000D9F807E0019B1B78012B03D10449032054
:1015400009F0D0F800BF03B05DF804FBA8880400E0
:10155000F888040000B583B00190019A0649012083
:1015600009F0D1F8054AC521019805F0FBFD00BF3F
:1015700003B05DF804FB00BF448904002488040024
:1015800000B58BB002AB1C220021184626F00AF9E8
:101590006B4608220021184626F004F94623ADF8D0
:1015A00000309623ADF802300023ADF804304FF43C
:1015B000A073ADF806306B4602934FF400430393DB
:1015C0004FF47023049303238DF814300023ADF8F7
:1015D000163000238DF81830094B0793094B0893F8
:1015E00002AB184603F070FB0990099B002B01D059
:1015F000099B00E0002318460BB05DF804FB00BF18
:101600001D1502005515020000B589B003468DF87E
:1016100007309DF80730002B07D0032B00D020E0C7
:101620001249032009F05EF81BE01149032009F07C
:1016300059F802238DF80C300E4B1B6803AA104694
:101640009847032003F08CF90790079B0693069BAD
:10165000002B05D0084A40F20311069805F082FDE0
:1016600000BF00BF09B05DF804FB00BF8089040023
:10167000B8890400583100202488040000B58FB0D8
:101680000190019B1B88013B542B00F24B8101A26E
:1016900052F823F0731802002519020025190200E0
:1016A000251902002519020025190200251902003A
:1016B000251902002519020025190200251902002A
:1016C000251902002519020025190200251902001A
:1016D000E91702000B180200251902002318020066
:1016E00025190200251902002519020025190200FA
:1016F00025190200251902002519020025190200EA
:1017000025190200251902002519020025190200D9
:1017100025190200DF1802001B190200251902001A
:1017200025190200251902002519020025190200B9
:1017300025190200251902002519020025190200A9
:101740002519020025190200251902002519020099
:101750002519020025190200251902002519020089
:101760002519020025190200251902002519020079
:101770002519020025190200CF18020025190200C0
:101780002519020025190200251902002519020059
:101790002519020025190200251902002519020049
:1017A0002519020025190200251902002519020039
:1017B0002519020025190200251902002519020029
:1017C0002519020025190200251902002519020019
:1017D00025190200251902004B18020025190200E4
:1017E00025190200991802005649032008F07AFFD3
:1017F000019B9A88544B1A8000238DF81430534B68
:101800001B6805AA1046984797E0019B1B7A1A4669
:101810004F49032008F077FF4B4B4FF6FF721A80B9
:101820008BE0494B1888002300228521FFF77EFDBD
:101830000D900D9B0C930C9B002B75D0454A4FF4DB
:1018400094710C9805F08EFC6EE03F4B18880023D5
:1018500000220021FFF772FD0D900D9B0B930B9B57
:10186000002B63D03B4A4FF497710B9805F07AFC3C
:101870005CE0354B1B8800211846FFF76BFD0D908F
:101880000D9B0A930A9B002B52D0324A40F233112F
:101890000A9805F067FC4BE0019BDB881A462E494D
:1018A000032008F030FF019B9B884FF48A71184693
:1018B000FFF748FD0D900D9B0993099B002B39D034
:1018C000244A4FF49D71099805F04CFC32E0019BCD
:1018D0005B891A462149032008F015FF2DE003AB70
:1018E00008220021184625F05DFF1D49032008F05D
:1018F000F9FE019B9B8803A900221846FFF71AFDF9
:101900000D900D9B0893089B002B15D0114A4FF4A6
:10191000A571089805F026FC0EE01249032008F096
:10192000E1FE0AE000BF08E000BF06E000BF04E0FF
:1019300000BF02E000BF00E000BF00BF0FB05DF8D5
:1019400004FB00BFF08904001C2B0020583100204C
:101950002C8A0400248804007C8A0400CC8A0400B9
:10196000188B0400688B040000B585B001900198C5
:1019700003F096FB019803F0D9FA0023039312E0D9
:10198000124B1A68039BDB0013445B68002B07D0E3
:101990000E4B1A68039BDB0013445B680198984761
:1019A000039B013303930A4B1B68039A9A42E7D3C4
:1019B0000199084808F0E3FA0198FFF75FFE0198E3
:1019C00003F0B8F800BF05B05DF804FB5C310020FF
:1019D000603100207C31002000B583B00190019877
:1019E00003F0C4F800BF03B05DF804FB00B58FB08E
:1019F0006D4B1B68049304A86C4B4FF4A6726C49A2
:101A000008F012FD0D900D9B0C930C9B002B05D044
:101A1000684A4FF4C7710C9805F0A4FB00230393A8
:101A200003AB184608F0C4FD0B900B9B0A930A9B6E
:101A3000002B05D05F4A4FF4C9710A9805F092FB5C
:101A40006B460C220021184625F0ACFE01238DF8D0
:101A50000030039A6B4619464020FFF777FC0B9045
:101A60000B9B0993099B002B05D0524A40F2991118
:101A7000099805F077FB6B460C220021184625F0EB
:101A800091FE9DF8003043F001038DF80030039A79
:101A90006B461946A020FFF759FC0B900B9B08934F
:101AA000089B002B05D0434A4FF4CF71089805F0EE
:101AB00059FB6B460C220021184625F073FE0123CA
:101AC0008DF800304FF48A73ADF80230039A6B46FC
:101AD00019462320FFF73AFC0B900B9B0793079BBB
:101AE000002B05D0334A40F2A511079805F03AFBC8
:101AF0006B460C220021184625F054FE01238DF878
:101B000000304FF4A073ADF8043001238DF802309B
:101B1000039A6B4619462020FFF718FC0B900B9B8D
:101B20000693069B002B05D0224A40F2AD11069881
:101B300005F018FB03AB184608F04AFD0B900B9B11
:101B40000593059B002B05D01A4A4FF4D9710598CF
:101B500005F008FB184808F0D3FC0B900B9B002BFA
:101B600001D00B9B1BE0154808F0DAFC0B900B9B97
:101B7000002B01D00B9B12E00120FFF7EFFB0B9035
:101B80000B9B002B01D00B9B09E00120FFF7EAFB28
:101B90000B900B9B002B01D00B9B00E00023184601
:101BA0000FB05DF804FB00BFB08B04004DA0020035
:101BB000943100202488040069190200D919020018
:101BC00000B5ABB01AAB3C220021184625F0EAFD67
:101BD00002238DF8683000238DF86A3006238DF8D3
:101BE0006B3003AB20220021184625F0DBFD0123DA
:101BF0008DF80F304FF4BE730793002308930BAB9F
:101C00003C220021184625F0CDFD0123ADF83C30E3
:101C1000114B109303AA0BA91AA8002300930F4B92
:101C200002F09AFD2990299B002B0DD00C4808F05A
:101C300053FD0246299B009340F2ED13094902200F
:101C400008F08CFD299B03E0012002F077FD0023C2
:101C500018462BB05DF804FB202B0020091602006B
:101C600024880400B48B040000B589B00190009171
:101C700004AB04220021184625F094FD00230793AD
:101C800018E0079BDB00019A13441B68002B0ED061
:101C9000079BDB00019A13441B681A4A127810460E
:101CA00098470690069B002B01D0069B26E0079BD9
:101CB00001330793079A009B9A42E2D302AB0822B2
:101CC0000021184625F06EFD0F4B029301238DF87D
:101CD0000C3001238DF80D3002AB19460B4807F08C
:101CE000C3FF0690069B0593059B002B05D0084A71
:101CF00040F21B21059805F035FA0023184609B07B
:101D00005DF804FB643100202D1402007C310020BA
:101D10002488040000B585B00190019B1B68454AEA
:101D20001360019B5B68444A1360019B9B68434AB4
:101D30001360FFF75BFE0390039B002B06D0039A12
:101D40003F49012008F0DFFC039B6EE03D4A3D4B1C
:101D5000D3F8883043F47003C2F88830BFF34F8F54
:101D6000BFF36F8FFFF790FB0390039B002B06D010
:101D7000039A3549012008F0C6FC039B55E02E4B21
:101D80001A682E4B1B6819461046FFF76DFF03902B
:101D9000039B002B06D0039A2C49012008F0B3FCCA
:101DA000039B42E0FFF70CFF0390039B002B06D040
:101DB000039A2749012008F0A6FC039B35E0FFF7B2
:101DC000DFFB0390039B002B06D0039A21490120DF
:101DD00008F099FC039B28E0032002F0C1FD03906A
:101DE000039B002B06D0039A1B49012008F08BFCB3
:101DF000039B1AE01948FFF715FA0390039B002B89
:101E000006D0039A1649012008F07DFC039B0CE0E4
:101E1000124808F061FC03461A461249132008F0E4
:101E200072FC0A20FFF7F2FA0023184605B05DF8AD
:101E300004FB00BF583100205C31002060310020DD
:101E4000088C040000ED00E0448C0400808C040049
:101E5000CC8C0400088D0400448D040068310020FF
:101E6000848D0400C08D0400024BD3F8043518465D
:101E7000704700BF00B0004010B584B003468DF835
:101E80000F309DF80F30002B14BF01230023DAB26E
:101E90001D4B1A701C4B1B78002B31D01B4B1B6841
:101EA00003F48043002B2BD0194B1B68012B27DD3B
:101EB0002F21184825F031FC0346002B06D02F2196
:101EC000144825F02AFC03465C1C0EE05C211148F6
:101ED00025F023FC0346002B06D05C210D4825F09D
:101EE0001CFC03465C1C00E00A4CFFF7BDFF0246E9
:101EF000094B009313466C22214602200DF048FE48
:101F000000BF04B010BD00BF242B00202C2B0020EC
:101F1000302B0020D48D0400608E04002DE9F047A2
:101F20008CB004AF0346FB715A4B1B78002B00F0BA
:101F3000A980FB7983F00103DBB2002B00F0A280C3
:101F4000544B00221A700023FB7795E0524B1B681C
:101F500003F48043002B00F08380504B1B68012B5F
:101F60007EDD6B469A4610237B617B695B00591CC2
:101F70000B46013B3B610A464FF00003DD0045EA9A
:101F80005275D4000A464FF000034FEAC30949EAEC
:101F900052794FEAC208CB1DDB08DB00ADEB030D25
:101FA00004AB0033FB600023BB6123E0FB7F3C4AB2
:101FB0001B011A44BB6913441B78FB72BB695B00AD
:101FC000384A1168FA7A1209D2B202F00F020A44B2
:101FD0001178FA68D154BB695B000133314A11684A
:101FE000FA7A02F00F020A441178FA68D154BB69F8
:101FF0000133BB61BA697B699A42D7D37B695B00C5
:10200000FA680021D1542F21274825F086FB03468A
:10201000002B06D02F21244825F07FFB03465E1CB1
:102020000EE05C21204825F078FB0346002B06D00B
:102030005C211D4825F071FB03465E1C00E01A4E32
:10204000FFF712FF0246FB680293184B0193184BEF
:10205000009313467722314602200DF099FDD546B4
:10206000F97FFB7F1B010E4A1A441023002001F068
:102070009BFBFB7F0133FB770E4B1B78FA7F9A4269
:10208000FFF464AF034AFB79137000BF2037BD46ED
:10209000BDE8F087E03200202C2B0020302B002000
:1020A000E4320020282B0020D48D04007C8E040014
:1020B000848E04008433002008B5A0220021044847
:1020C00025F070FB034B00221A7000BF08BD00BF53
:1020D000E43200208433002000B58BB001905F23F0
:1020E0008DF808305F238DF809306E238DF80A30A3
:1020F0006F238DF80B3072238DF80C3064238DF82C
:102100000D3069238DF80E3063238DF80F305F2377
:102110008DF810305F238DF8113073238DF8123055
:1021200065238DF813306D238DF8143069238DF8F5
:1021300015305F238DF816305F238DF8173000239C
:10214000ADF818300023ADF81A300023ADF81C307C
:10215000124B1B88ADF81E309DF820306FF3000342
:102160008DF820309DF820306FF341038DF820303A
:1021700002AA002301990A481FF04DFF0990099B0C
:10218000002B04D0074A9121099804F0EBFF064B7D
:1021900002221A7000BF0BB05DF804FBDA36002093
:1021A000A8350020D48D0400D83600202DE9F04158
:1021B0008CB004AFF87181480078FD79854234D93C
:1021C0007F4B1B6803F48043002B00F0F1807D4BB4
:1021D0001B68012B40F3EC802F217B4825F09DFAF2
:1021E0000346002B06D02F21774825F096FA0346A8
:1021F0005C1C0EE05C21744825F08FFA0346002B2E
:1022000006D05C21704825F088FA03465C1C00E08B
:102210006D4CFFF729FE02466C4B00931346982243
:10222000214602200DF0B4FCC2E06548006800F4CD
:102230008040002800F081806248006801287CDD31
:10224000684680461020B861B869400001300546F4
:10225000013D7D6105464FF00006F20042EA5572ED
:10226000E90001464FF00002D40044EA5174CB006B
:10227000C31DDB08DB00ADEB030D04AB00333B619A
:102280000023FB6123E0FB79514A1B011A44FB69DF
:1022900013441B78FB73FB695B004E4A1168FA7BA1
:1022A0001209D2B202F00F020A4411783A69D154ED
:1022B000FB695B000133474A1168FA7B02F00F02A9
:1022C0000A4411783A69D154FB690133FB61FA6918
:1022D000BB699A42D7D3BB695B003A690021D154EC
:1022E0002F21394825F019FA0346002B06D02F215B
:1022F000354825F012FA03465C1C0EE05C2132489A
:1023000025F00BFA0346002B06D05C212E4825F061
:1023100004FA03465C1C00E02B4CFFF7A5FD0246C7
:102320003B6902932C4B01932C4B009313469C2248
:10233000214602200DF02CFCC546FB791B01244AE6
:102340001344184600F04EF8FFF7B6FE1C4B1B680E
:1023500003F48043002B2BD01A4B1B68012B27DD85
:102360002F21194825F0D9F90346002B06D02F213B
:10237000154825F0D2F903465C1C0EE05C2112489A
:1023800025F0CBF90346002B06D05C210E4825F042
:10239000C4F903465C1C00E00B4CFFF765FD0246E8
:1023A0000F4B009313469F22214602200DF0F0FBB5
:1023B00000BF2037BD46BDE8F08100BF8433002058
:1023C0002C2B0020302B0020D48D04008C8E040098
:1023D000E4320020282B0020A48E0400848E040008
:1023E000C48E04002DE9F0418CB004AF78604748FA
:1023F000006800F4804000287DD04548006803282C
:1024000079DD684680461020B861B8694000013027
:102410000546013D7D6105464FF00006F20042EAA7
:102420005572E90001464FF00002D40044EA5174AD
:10243000CB00C31DDB08DB00ADEB030D04AB0033A9
:102440003B610023FB6120E07A68FB6913441B7841
:10245000FB73FB695B002F4A1168FA7B1209D2B249
:1024600002F00F020A4411783A69D154FB695B000B
:102470000133284A1168FA7B02F00F020A441178EE
:102480003A69D154FB690133FB61FA69BB699A422D
:10249000DAD3BB695B003A690021D1542F211E4871
:1024A00025F03BF90346002B06D02F211A4825F0D2
:1024B00034F903465C1C0EE05C21174825F02DF929
:1024C0000346002B06D05C21134825F026F903466D
:1024D0005C1C00E0104CFFF7C7FC02463B6902930E
:1024E0000E4B01930E4B00931346A5222146042068
:1024F0000DF04EFBC5467868FFF7EEFD094B022252
:102500001A7000BF2037BD46BDE8F0812C2B00209B
:10251000302B0020282B0020D48D0400D48E040002
:10252000848E0400D836002010B5A2B0A14B1B78D1
:10253000033B072B00F2BA8201A252F823F000BF3E
:102540006125020067250200E525020077260200CA
:1025500017270200DD270200E3280200EF2902000E
:10256000944B04221A70944B1B6803F48043002B95
:102570002BD0924B1B68032B27DD2F21904825F091
:10258000CCF80346002B06D02F218D4825F0C5F846
:1025900003465C1C0EE05C21894825F0BEF803462A
:1025A000002B06D05C21864825F0B7F803465C1C5A
:1025B00000E0834CFFF758FC0246824B0093134621
:1025C000B522214604200DF0E3FA1FF059FA2190BC
:1025D000219B002B00F07782794AB621219804F0E4
:1025E000C1FD70E2744B1B6803F48043002B2BD0B9
:1025F000724B1B68032B27DD2F21714825F08DF8C6
:102600000346002B06D02F216D4825F086F803469F
:102610005C1C0EE05C216A4825F07FF80346002B25
:1026200006D05C21664825F078F803465C1C00E083
:10263000634CFFF719FC0246634B00931346BD221F
:10264000214604200DF0A4FA604B13AC0FCB84E8B4
:102650000F0013AB1A46002100201FF055FA2090FE
:10266000209B002B00F03182554ABF21209804F0B6
:1026700079FD00BF29E2504B1B6803F48043002B17
:102680002BD04E4B1B68032B27DD2F214C4825F008
:1026900044F80346002B06D02F21494825F03DF889
:1026A00003465C1C0EE05C21454825F036F80346E5
:1026B000002B06D05C21424825F02FF803465C1C15
:1026C00000E03F4CFFF7D0FB0246414B009313461E
:1026D000C622214604200DF05BFA4FF6FF73ADF8D9
:1026E0004A300223ADF848303A4B1B88ADF87E30B3
:1026F000BDF87E30129A002118461FF0F5FA1E90A0
:102700001E9B002B00F0E3812D4ACB211E9804F084
:1027100029FD00BFDBE1284B1B6803F48043002B3D
:102720002BD0264B1B68032B27DD2F21244824F0B8
:10273000F4FF0346002B06D02F21214824F0EDFFA3
:1027400003465C1C0EE05C211D4824F0E6FF0346B6
:10275000002B06D05C211A4824F0DFFF03465C1CE6
:1027600000E0174CFFF780FB02461B4B009313461B
:10277000D222214604200DF00BFA5923ADF8463041
:102780000223ADF84430134B1B88ADF87630BDF80A
:102790007630119A002118461FF0A6FA1C901C9B57
:1027A000002B00F09681064AD7211C9804F0DAFC31
:1027B00000BF8EE1D83600202C2B0020302B0020CB
:1027C000D48D0400EC8E0400088F040000900400F7
:1027D000188F0400DA3600203C8F04000BAB002277
:1027E0001A605A609A60DA601A615A61BE4B1B889F
:1027F000ADF82C3001238DF830300123ADF83230A4
:102800000023ADF8383000238DF83A300A238DF8D4
:102810003B309DF83C30012262F387038DF83C3059
:102820009DF83C3043F003038DF83C3001238DF8D4
:102830003D3000238DF83E304FF0FF338DF84130AE
:102840004FF0FF338DF84230002343F002038DF840
:102850003F3000238DF84030A44B1B6803F48043C5
:10286000002B2ED0A24B1B68032B2ADD2F21A14861
:1028700024F053FF0346002B06D02F219D4824F05F
:102880004CFF03465C1C0EE05C219A4824F045FF97
:102890000346002B06D05C21964824F03EFF0346F9
:1028A0005C1C00E0934CFFF7DFFA0246BDF83230C3
:1028B0000193914B00931346EB22214604200DF027
:1028C00067F90BAB18461FF085F91B901B9B002B7B
:1028D00000F00181874AED211B9804F043FC00BF02
:1028E000F9E005AB00221A605A609A60DA601A615A
:1028F0005A617D4B1B88ADF8143001238DF81830D8
:10290000794B1B88FF3B9BB2ADF81A300023ADF822
:10291000203000238DF822300A238DF823309DF8D3
:1029200024306FF387038DF824309DF824306FF343
:1029300001038DF8243001238DF8253000238DF814
:102940002630002343F059038DF8293000238DF8F9
:102950002A30002343F002038DF8273000238DF83E
:102960002830624B1B6803F48043002B2FD0604B50
:102970001B68032B2BDD2F215E4824F0CEFE03467F
:10298000002B06D02F215B4824F0C7FE03465C1CB9
:102990000EE05C21574824F0C0FE0346002B06D011
:1029A0005C21544824F0B9FE03465C1C00E0514C05
:1029B000FFF75AFA0246BDF81A3001934F4B0093C5
:1029C000134640F20112214604200DF0E1F805AB58
:1029D00018461FF0FFF81A901A9B002B7DD0454A2D
:1029E00040F203111A9804F0BDFB00BF75E03F4BA5
:1029F0001B6803F48043002B2CD03D4B1B68032B3A
:102A000028DD2F213B4824F088FE0346002B06D00A
:102A10002F21384824F081FE03465C1C0EE05C2127
:102A2000344824F07AFE0346002B06D05C2131485E
:102A300024F073FE03465C1C00E02E4CFFF714FAF2
:102A400002462F4B009313464FF485722146042013
:102A50000DF09EF8244B1B88ADF8663000238DF8EE
:102A60000C300023ADF80E300023049303238DF8BF
:102A70000C304CF6FE23ADF80E305923ADF80A3079
:102A80000223ADF80830BDF86600029B03AA06CA0F
:102A90001FF0C4F81890189B002B20D0154A4FF453
:102AA0008971189804F05EFB00BF18E07B4617930D
:102AB000144B1B68002B04D0124B1B6817989847C7
:102AC0000EE000DE0CE000BF0AE000BF08E000BF3F
:102AD00006E000BF04E000BF02E000BF00E000BF6E
:102AE00000BF22B010BD00BFDA3600202C2B002022
:102AF000302B0020D48D0400688F0400A88F0400C0
:102B0000E88F0400284E00202DE9F04F93B004AF69
:102B10007860012187F83610AF49096801F48041D7
:102B2000002900F08280AD49096801297DDD6946F0
:102B300039601021B962B96A49004E1C3146013929
:102B4000796230464FF000014FEAC10B4BEA507BEF
:102B50004FEAC00A30464FF00001CB0043EA507301
:102B6000C200F31DDB08DB00ADEB030D04AB00334B
:102B70003B6200233B6320E07A683B6B13441B7885
:102B8000FB773B6B5B00964A1168FA7F1209D2B261
:102B900002F00F020A4411783A6AD1543B6B5B0091
:102BA00001338F4A1168FA7F02F00F020A4411784C
:102BB0003A6AD1543B6B01333B633A6BBB6A9A422E
:102BC000DAD3BB6A5B003A6A0021D1542F218548D1
:102BD00024F0A3FD0346002B06D02F21814824F0CA
:102BE0009CFD03465E1C0EE05C217E4824F095FDB2
:102BF0000346002B06D05C217A4824F08EFD034664
:102C00005E1C00E0774EFFF72FF902463B6A029305
:102C1000754B0193754B0093134640F223123146D6
:102C200002200CF0B5FFD7F800D0002387F837302A
:102C300014E097F837301B016D4A1344102279686D
:102C4000184624F03CFD0346002B02D1002387F8F0
:102C5000363097F83730013387F8373097F8373008
:102C6000092BE6D997F83630002B12D0614B1B7830
:102C7000082B0ED85F4B1B781B015D4A1344796803
:102C8000184624F0C3FD5B4B1B780133DAB2594B75
:102C90001A70002387F8373091E04F4B1B6803F41C
:102CA0008043002B00F086804C4B1B68012B40F3C7
:102CB00081806B469A461023BB61BB695B00591C3F
:102CC0000B46013B7B610A464FF00003DD0045EAFD
:102CD0005275D4000A464FF000034FEAC30949EA8F
:102CE00052794FEAC208CB1DDB08DB00ADEB030DC8
:102CF00004AB00333B610023FB6224E097F83730DC
:102D00003B4A1B011A44FB6A13441B78FB73FB6AA2
:102D10005B00334A1168FA7B1209D2B202F00F024B
:102D20000A4411783A69D154FB6A5B0001332C4A9A
:102D30001168FA7B02F00F020A4411783A69D15403
:102D4000FB6A0133FB62FA6ABB699A42D6D3BB695C
:102D50005B003A690021D1542F21224824F0DDFC88
:102D60000346002B06D02F211E4824F0D6FC034634
:102D70005E1C0EE05C211B4824F0CFFC0346002BB8
:102D800006D05C21174824F0C8FC03465E1C00E016
:102D9000144EFFF769F802463B690293124B019308
:102DA000124B0093134640F23312314602200CF0CE
:102DB000EFFED54697F83730013387F837300D4BA3
:102DC0001B7897F837209A42FFF467AF00BF184688
:102DD0003C37BD46BDE8F08F2C2B0020302B002067
:102DE000282B0020D48D040010900400848E040051
:102DF000E43200208433002010B58AB00390039B96
:102E00001B78082B00F2FD8101A252F823F000BFCD
:102E1000352E02009B310200E52E02000332020033
:102E2000033202000531020003320200E32F0200E8
:102E3000D12F0200A84B1B78012B40F0E481A74B57
:102E40001B78002B08D0039B04331846FFF744F986
:102E5000A14B02221A70D6E1A04B1B7883F001032C
:102E6000DBB2002B00F0CF819D4B1B78002B00F0D4
:102E7000CA819C4B1B6803F48043002B2CD09A4BD7
:102E80001B68032B28DD2F21984824F046FC0346BD
:102E9000002B06D02F21954824F03FFC03465C1CF4
:102EA0000EE05C21914824F038FC0346002B06D04C
:102EB0005C218E4824F031FC03465C1C00E08B4C06
:102EC000FEF7D2FF02468A4B0093134640F24712A8
:102ED000214604200CF05CFE039B04331846FFF7E8
:102EE00013FE90E17F4B1B6803F48043002B2CD032
:102EF0007D4B1B68032B28DD2F217C4824F00DFC23
:102F00000346002B06D02F21784824F006FC034608
:102F10005C1C0EE05C21754824F0FFFB0346002B8F
:102F200006D05C21714824F0F8FB03465C1C00E0ED
:102F30006E4CFEF799FF02466E4B009313464FF41A
:102F4000A772214604200CF023FE634B1B78022B52
:102F500036D1644B1B6803F48043002B2CD0624BAA
:102F60001B68032B28DD2F21604824F0D6FB034685
:102F7000002B06D02F215D4824F0CFFB03465C1CBC
:102F80000EE05C21594824F0C8FB0346002B06D014
:102F90005C21564824F0C1FB03465C1C00E0534C06
:102FA000FEF762FF0246544B0093134640F2511263
:102FB000214604200CF0ECFD474B01221A7024E15D
:102FC000454B1B78032B40F02081FFF7ADFA1CE145
:102FD000414B00221A70039B04331846FDF722FB75
:102FE0001AE1039B58681023002201211FF04BF8BF
:102FF0000990099B002B38D03A4B1B6803F480439F
:10300000002B2ED0384B1B68002B2ADD2F21374890
:1030100024F083FB0346002B06D02F21334824F0F5
:103020007CFB03465C1C0EE05C21304824F075FB01
:103030000346002B06D05C212C4824F06EFB03468F
:103040005C1C00E0294CFEF70FFF0246099B019330
:103050002A4B009313464FF4B472214601200CF022
:1030600097FD1D4B01221A70D1E01E4B1B6803F423
:103070008043002B00F0CB801B4B1B68032B40F3DD
:10308000C6802F21194824F048FB0346002B06D0A8
:103090002F21164824F041FB03465C1C0EE05C2106
:1030A000124824F03AFB0346002B06D05C210F485F
:1030B00024F033FB03465C1C00E00C4CFEF7D4FE0E
:1030C00002460F4B0093134640F26D122146042036
:1030D0000CF05EFD9BE000BFD8360020242B0020C2
:1030E000E03200202C2B0020302B0020D48D040057
:1030F0001C90040028900400489004006C90040088
:10310000B0900400464B04AC0FCB84E80F00039B47
:103110005B6804A9102218461EF0D9FF0890089B8E
:10312000002B05D03F4A40F27511089804F01AF8B8
:103130003D4B1B6803F48043002B6AD03B4B1B685C
:10314000032B66DD2F21374824F0E7FA0346002BD6
:1031500006D02F21334824F0E0FA03465C1C0EE031
:103160005C21304824F0D9FA0346002B06D05C21BC
:103170002C4824F0D2FA03465C1C00E0294CFEF7F0
:1031800073FE02462A4B009313464FF4BB7221464E
:1031900004200CF0FDFC00BF3BE0234B1B6803F454
:1031A0008043002B37D0214B1B68032B33DD2F21AD
:1031B0001C4824F0B2FA0346002B06D02F211948F0
:1031C00024F0ABFA03465C1C0EE05C21154824F0A9
:1031D000A4FA0346002B06D05C21124824F09DFA85
:1031E00003465C1C00E00F4CFEF73EFE0246114B0E
:1031F0000093134640F27B12214604200CF0C8FCD9
:1032000009E000BF08E000BF06E000BF04E000BF27
:1032100002E000BF00E000BF00BF0AB010BD00BF69
:1032200020910400D48D04002C2B0020302B002092
:10323000D0900400F890040000B583B00346ADF8C8
:1032400006300A4ABDF806301380094B1B78022B62
:1032500003D1074B03221A7004E0054B03221A70B6
:10326000FFF762F900BF03B05DF804FBDA36002017
:10327000D836002082B00346ADF80630044ABDF8C7
:1032800006301380034B01221A7000BF02B0704752
:10329000DA360020D83600202DE9F04393B004AF91
:1032A00003463960FB711346BB80FB79002B02D1CA
:1032B000FDF734F9C5E13B68002B0BD17B463B633E
:1032C000984B1B68002B04D0964B1B68386B9847B3
:1032D00000E000DE3B681B88022B40F09980924B97
:1032E0001B78042B40F09480904B1B6803F48043C0
:1032F000002B00F087808E4B1B68032B40F38280ED
:103300006B461E46BB88FB62FB6A5B00591C0B4682
:10331000013BBB620A464FF000034FEAC30949EA8A
:1033200052794FEAC2080A464FF00003DD0045EA31
:103330005275D400CB1DDB08DB00ADEB030D04ABF5
:1033400000337B6200237B6325E03B685B681A46A1
:103350007B6B13441B7887F823307B6B5B00754ACB
:10336000116897F823201209D2B202F00F020A4422
:1033700011787A6AD1547B6B5B0001336D4A116816
:1033800097F8232002F00F020A4411787A6AD15488
:103390007B6B01337B637A6BFB6A9A42D5D3FB6A02
:1033A0005B007A6A0021D1542F21634824F0B5F9DB
:1033B0000346002B06D02F215F4824F0AEF90346C8
:1033C0005C1C0EE05C215C4824F0A7F90346002B4E
:1033D00006D05C21584824F0A0F903465C1C00E0AC
:1033E000554CFEF741FD02467B6A0293534B019315
:1033F000534B0093134640F2A512214604200CF0D3
:10340000C7FBB546484B05221A70FFF78DF818E147
:103410003B681B8848F2030293421FD1424B1B7842
:10342000052B1BD13B685B681B78002B10D03B68D9
:103430005B681B78062B0BD07B46FB61394B1B6806
:10344000002B04D0374B1B68F869984700E000DE7A
:10345000354B06221A70FFF767F8F2E03B681B88CD
:1034600048F23E0293421AD12F4B1B78062B16D1FD
:103470003B685B681B78002B0BD07B46BB61294BFC
:103480001B68002B04D0274B1B68B869984700E0E5
:1034900000DE254B07221A70FFF746F8D1E03B68A3
:1034A0001B8848F23E0293421AD11F4B1B78072B10
:1034B00016D13B685B681B78002B0BD07B467B6189
:1034C000184B1B68002B04D0164B1B687869984773
:1034D00000E000DE144B08221A70FFF725F8B0E078
:1034E0003B681B8848F2190293422BD10E4B1B7884
:1034F000082B27D13B685B681B78002B0BD07B46E1
:103500003B61084B1B68002B04D0064B1B683869D5
:10351000984700E000DE044B09221A70FFF704F818
:103520008FE000BF284E0020D83600202C2B002032
:10353000302B0020282B0020D48D04003091040073
:10354000848E04003B681B8848F2190293421AD10A
:103550003E4B1B78092B16D13B685B681B78002B10
:103560000BD07B46FB603A4B1B68002B04D0384BDA
:103570001B68F868984700E000DE344B0A221A7096
:10358000FEF7D2FF5DE03B681B8848F21F029342C2
:103590001AD12E4B1B780A2B16D13B685B681B781F
:1035A000002B0BD07B46BB60294B1B68002B04D043
:1035B000274B1B68B868984700E000DE234B0022C9
:1035C0001A70FCF7B9FB3CE03B681B8848F21F020D
:1035D000934236D11F4B1B6803F48043002B30D03D
:1035E0001D4B1B68012B2CDD2F211C4824F095F866
:1035F0000346002B06D02F21184824F08EF80346EE
:103600005C1C0EE05C21154824F087F80346002B73
:1036100006D05C21114824F080F803465C1C00E0D1
:103620000E4CFEF721FC02463B685B681B78019359
:103630000B4B0093134640F2D712214602200CF0A8
:10364000A7FA3C37BD46BDE8F08300BFD83600205E
:10365000284E00202C2B0020302B0020D48D04007D
:103660004491040000B58BB0274B00221A70274A02
:1036700003AB07CA03C31A800233120C1A70244921
:1036800024481EF0BBFC0990099B002B05D0224A60
:103690004FF4F171099803F065FD03AA1F4B0093E5
:1036A00013461B4A1B491E481EF028FC0890089B25
:1036B000002B05D0184A40F2E311089803F052FDA0
:1036C000184820F0F1FB0346194615481EF076FC19
:1036D0000790079B002B05D00F4A4FF4F271079813
:1036E00003F040FD0D481EF013FD0690069B002BD5
:1036F00005D0094A40F2E511069803F033FD00BFFA
:103700000BB05DF804FB00BFD83600205C910400CC
:10371000C833002088330020D48D0400F92D020026
:10372000A8350020E833002000B583B0019001994E
:10373000034801F0DDFE00BF03B05DF804FB00BFED
:10374000DC36002000B585B003468DF8073002ABAB
:1037500004220021184624F025F8074B1B68029329
:1037600002AB1946054801F0E9FE039000BF184678
:1037700005B05DF804FB00BFF8360020DC36002001
:1037800000B583B001900B46ADF80230BDF80230B1
:103790001A460199034801F029FF0346184603B071
:1037A0005DF804FBDC36002000B58DB0029101927B
:1037B0001A460346ADF80E3013468DF80D3005ABB2
:1037C00000221A605A609A60DA601A61C3F8132006
:1037D000029B1B0ADBB28DF81430029BDBB28DF822
:1037E0001530BDF80E30DBB28DF816309DF80D2087
:1037F00005AB03330199184623F0AAFF9DF80D305D
:103800009BB203339AB205AB11461846FFF7B8FFD7
:103810000B900B9B18460DB05DF804FB00B583B010
:1038200001900091019B002B01D10E230CE008496F
:10383000032006F057FF074A009B1360019B064ACE
:103840005A60019B054A1A60184603B05DF804FBF4
:1038500068910400F836002029370200453702003D
:103860006DDF704700BF184672DF704700BF184613
:1038700079DF704700BF18467DDF704700BF1846EC
:1038800064DF704700BF184682B003460091ADF870
:103890000630BDF80630DAB2009B1A70009B013387
:1038A000BDF80620120A92B2D2B21A70022318464C
:1038B00002B0704700B589B0039002911346ADF88D
:1038C0000630029B1B8803F10902BDF806309A42BC
:1038D00001D90C2351E005AB1846FFF7C1FF079053
:1038E000079B002B01D0079B47E0029B1B881A46D1
:1038F000039B134408221A70029B1B8801339AB25F
:10390000029B1A80029B1B881A46039B13441B22AE
:103910001A70029B1B8801339AB2029B1A80029B89
:103920001B881A46039B981805AB013306221946DB
:1039300023F00EFF029B1B8806339AB2029B1A806B
:103940009DF8143023F00103DBB2002B07D1029B5A
:103950001B881A46039B134400221A7006E0029B40
:103960001B881A46039B134401221A70029B1B8872
:1039700001339AB2029B1A800023184609B05DF801
:1039800004FB00B589B0039002910192ADF80230BA
:10399000039B1B78012B05D1039B5B78002B01D186
:1039A000072389E0019B1B889A1CBDF802309A42CC
:1039B0000ED8039B1B78012B0CD1019B1B881A4648
:1039C000039B5B7813449A1CBDF802309A4201D9DC
:1039D0000C2371E0019B1B88BDF80220D31A9BB217
:1039E000023BADF81C30BDF81C30ADF81630019B21
:1039F0001B880233029A13440DF116021146184631
:103A0000FFF73AFF0690069B002B01D0069B53E080
:103A1000039B1B78022B09D1BDF81630BDF81C2082
:103A20009A4203D309238DF81F3017E008238DF83D
:103A30001F30039B1B78012B0CD1039B5B789BB23F
:103A4000BDF81C209A4205D3039B5B789BB2ADF86E
:103A5000163003E0BDF81C30ADF81630BDF8163056
:103A6000FE2B01D90C2327E0019B1B881A46029BE1
:103A70001344BDF81620D2B20132D2B21A70019BA3
:103A80001B8801339AB2019B1A80019B1B881A463E
:103A9000029B13449DF81F201A70019B1B88013361
:103AA0009AB2019B1A80019B1A88BDF81630134404
:103AB0009AB2019B1A800023184609B05DF804FBF6
:103AC00000B587B0039002911346ADF80630029B13
:103AD0001B881A1DBDF806309A4201D90C2339E023
:103AE0000DF112031846FFF7C3FE0590059B002B4E
:103AF00001D0059B2EE0029B1B881A46039B1344B2
:103B000003221A70029B1B8801339AB2029B1A800F
:103B1000029B1B881A46039B134419221A70029BAE
:103B20001B8801339AB2029B1A80BDF81220029BB7
:103B30001B881946039B0B4419461046FFF7A4FE49
:103B400003461946029B1A888BB213449AB2029B11
:103B50001A800023184607B05DF804FB84B0029178
:103B600001921A4603468DF80F301346ADF80C301B
:103B7000019B1B88DA1CBDF80C309A4201D90C233A
:103B800028E0019B1B881A46029B134402221A70EC
:103B9000019B1B8801339AB2019B1A80019B1B88F1
:103BA0001A46029B134401221A70019B1B880133A1
:103BB0009AB2019B1A80019B1B881A46029B1344F0
:103BC0009DF80F201A70019B1B8801339AB2019B4C
:103BD0001A800023184604B0704784B00291019205
:103BE0001A4603468DF80F301346ADF80C30019B92
:103BF0001B88DA1CBDF80C309A4201D90C2328E04E
:103C0000019B1B881A46029B134402221A70019BD7
:103C10001B8801339AB2019B1A80019B1B881A46AC
:103C2000029B13440A221A70019B1B8801339AB22B
:103C3000019B1A80019B1B881A46029B13449DF826
:103C40000F201A70019B1B8801339AB2019B1A80C6
:103C50000023184604B0704700B58BB00390019361
:103C60000B468DF80B3013468DF80A3000238DF883
:103C700023300C9B1B88ADF82030002309936DE0A6
:103C8000039B5A68099B9B001A4404AB1068186098
:103C90000DF1170104AB00221846FFF7F1FD079064
:103CA000079B002B01D0079B7AE09DF817309DF809
:103CB0000A209A424FD19DF82330002B01D00023D7
:103CC00000E002238DF81B300C9B1B881A469DF8E0
:103CD00017301A449DF81B301A44BDF834309A420C
:103CE00001DD0C235CE09DF8233083F00103DBB29F
:103CF000002B16D00C9B1B8801339AB20C9B1A80A8
:103D00000C9B1B881A46019B13449DF80B201A70CC
:103D10000C9B1B8801339AB20C9B1A8001238DF8EF
:103D200023300C9B1B881A46019B1A440DF1170186
:103D300004AB1846FFF7A4FD0790079B002B01D0AA
:103D4000079B2DE00C9B1A889DF817309BB21344FB
:103D50009AB20C9B1A80099B01330993039B1B8821
:103D60001A46099B9A428BDC9DF82330002B16D013
:103D70000C9B1A88BDF82030D31A9BB2013BADF8DA
:103D80001830BDF81830FF2B01D90C2308E0BDF81E
:103D90002030019A1344BDF81820D2B21A700023C3
:103DA00018460BB05DF804FB00B589B0059003938D
:103DB0000B468DF8133013468DF812309DF8131012
:103DC000BDF82C3001930A9B0093039B02220598B7
:103DD000FFF742FF0790079B002B01D0079B12E0E3
:103DE0009DF81210BDF82C3001930A9B0093039BA1
:103DF00010220598FFF730FF0790079B002B01D09A
:103E0000079B00E00023184609B05DF804FB82B070
:103E10000190019B1B88052B0AD9019B1B88B3F5D8
:103E2000486F07D9019B1B884FF6FF72934201D060
:103E3000072325E0019B5B88052B0AD9019B5B8842
:103E4000B3F5486F07D9019B5B884FF6FF72934229
:103E500001D0072314E0019B1B884FF6FF729342A9
:103E60000DD0019B5B884FF6FF72934207D0019BF8
:103E70001A88019B5B889A4201D9072300E000233E
:103E8000184602B0704700B587B0039002910192C6
:103E9000ADF80230019B1B889A1DBDF802309A4292
:103EA00001D90C234BE00398FFF7B1FF0590059B68
:103EB000002B01D0059B42E0019B1B881A46029B08
:103EC000134405221A70019B1B8801339AB2019B8F
:103ED0001A80019B1B881A46029B134412221A70F7
:103EE000019B1B8801339AB2019B1A80039B1A889D
:103EF000019B1B881946029B0B4419461046FFF78D
:103F0000C3FC03461946019B1A888BB213449AB22C
:103F1000019B1A80039B5A88019B1B881946029BB0
:103F20000B4419461046FFF7AFFC03461946019BA8
:103F30001A888BB213449AB2019B1A800023184648
:103F400007B05DF804FB00B587B0039002910192C1
:103F5000ADF80230039B9B8802330593019B1B88BD
:103F60001A46059B13449A1CBDF802309A4201D9A7
:103F70000C2354E0059BFE2B01D90C234FE0019B41
:103F80001B881A46029B1344059AD2B20132D2B260
:103F90001A70019B1B8801339AB2019B1A80019B06
:103FA0001B881A46029B1344FF221A70019B1B8830
:103FB00001339AB2019B1A80039B1A88019B1B88CC
:103FC0001946029B0B4419461046FFF75DFC034659
:103FD0001946019B1A888BB213449AB2019B1A802E
:103FE000039B9B88002B19D0039B9B68002B01D15E
:103FF000072314E0019B1B881A46029B9818039B19
:104000009968039B9B881A4623F0A2FB019B1A88A0
:10401000039B9B8813449AB2019B1A800023184685
:1040200007B05DF804FB00B589B0039002910192DE
:10403000ADF80230039B9B6A002B01D1072372E08D
:1040400000238DF81F3066E0039B996A9DF81F20BE
:1040500013465B0013449B000B440693069B9B880E
:1040600002330593059BFE2B01D90C235BE0019BDA
:104070001B881A46029B1344059AD2B20132D2B26F
:104080001A70019B1B8801339AB2019B1A80019B15
:104090001B881A46029B134416221A70019B1B8828
:1040A00001339AB2019B1A80069B1A88019B1B88D8
:1040B0001946029B0B4419461046FFF7E5FB0346E1
:1040C0001946019B1A888BB213449AB2019B1A803D
:1040D000069B9B88002B19D0069B9B68002B01D167
:1040E000072320E0019B1B881A46029B9818069B19
:1040F0009968069B9B881A4623F02AFB019B1A8825
:10410000069B9B8813449AB2019B1A809DF81F302E
:1041100001338DF81F30039B93F82C309DF81F203E
:104120009A4291D30023184609B05DF804FB00B50C
:1041300089B005900491039200230793039B1B8889
:10414000ADF81A30039B00221A80059B93F82D309E
:10415000002B0CD0BDF81A301A4603990498FFF7CB
:10416000A9FB0790079B002B01D0079BC4E0059B90
:104170009B78002B0CD0BDF81A301A46039904988E
:10418000FFF79EFC0790079B002B01D0079BB3E035
:10419000059BDB78002B0ED0059BDB7858B2BDF871
:1041A0001A30039A0499FFF7D9FC0790079B002B5C
:1041B00001D0079BA0E0059B5B68002B0FD0059BFF
:1041C0005B6893F90000BDF81A30039A0499FFF771
:1041D00004FD0790079B002B01D0079B8CE0059BFB
:1041E0001B89002B12D0059B03F10800BDF81A3083
:1041F0000193039B0093049B06220221FFF7D4FD49
:104200000790079B002B01D0079B75E0059B1B8A3D
:10421000002B12D0059B03F11000BDF81A3001935A
:10422000039B0093049B07220321FFF7BDFD07902A
:10423000079B002B01D0079B5EE0059B1B8B002B8F
:1042400012D0059B03F11800BDF81A300193039BAF
:104250000093049B15221421FFF7A6FD0790079BEE
:10426000002B01D0079B47E0059B1B6A002B0DD05C
:10427000059B186ABDF81A30039A0499FFF703FEEC
:104280000790079B002B01D0079B35E0059B5B6ADD
:10429000002B0DD0059B586ABDF81A30039A04997B
:1042A000FFF751FE0790079B002B01D0079B23E0EF
:1042B000059B93F82C30002B0CD0BDF81A30039AD4
:1042C00004990598FFF7AFFE0790079B002B01D0DC
:1042D000079B11E0059B1B78002B0CD0BDF81A3012
:1042E000039A04990598FFF74CFB0790079B002B56
:1042F00001D0079B00E0079B184609B05DF804FB5E
:1043000082B00190019BDB7803F00403002B01D104
:10431000072300E00023184602B0704782B00190E6
:10432000019BDB78002B01D0072300E00023184617
:1043300002B0704700B597B0019000911F23ADF80F
:104340004A301F23ADF84830019B002B18D001984C
:10435000FFF7D6FF1390139B002B01D0139B3FE078
:104360000DF14A020AAB19460198FFF7E0FE1390DF
:10437000139B002B01D0139B32E00AAB159304E092
:10438000002315930023ADF84A30009B002B17D073
:104390000098FFF7C3FF1390139B002B01D0139BD2
:1043A0001EE012AA02AB19460098FFF7C0FE139058
:1043B000139B002B01D0139B12E002AB149304E07B
:1043C000002314930023ADF84830BDF84A30D9B229
:1043D000BDF84830DBB2149A1598FFF745FA03464A
:1043E000184617B05DF804FB73DF704700BF18462E
:1043F000014B1B7818467047D237002084B00190DB
:10440000002303930AE0019A039B13441B78002BBB
:1044100001D0012306E0039B01330393039B052B8B
:10442000F1D90023184604B07047000082B003465B
:104430008DF807309DF807305A1C074B83FB021399
:104440005910D317C91A0B469B000B44D11ACBB293
:10445000184602B0704700BF6766666682B001907A
:10446000019BDB7B012B03D1019B9A88024B1A80B5
:1044700000BF02B0704700BFC437002000B585B050
:1044800001900E4B00221A70019B9A880C4B1B88DE
:104490009A420ED1012000F063FA0390039B002B97
:1044A00007D0084B1B68002B03D0064B1B680398F2
:1044B000984700BF05B05DF804FB00BFD03700206F
:1044C000C4370020CC37002000B585B00190019B97
:1044D0001B7A002B15D10D4B1B781846FFF7A6FF52
:1044E0000346184600F03CFA0390039B002B09D0CA
:1044F000074B1B68002B05D0054B1B68039898479A
:1045000000E000BF05B05DF804FB00BFFF360020EF
:10451000CC37002000B583B001AB184604F054F846
:10452000019B002B14BF01230023DBB2184603B00C
:104530005DF804FB00B585B003468DF807301E48D2
:10454000FFF75CFF03468DF80F309DF80730013B05
:10455000032B2BD801A252F823F000BF6D450200B7
:104560008145020095450200A1450200134B5B788E
:10457000002B05D09DF80F30002B01D0012316E051
:104580000E4B9B78002B05D09DF80F30002B01D0EF
:1045900002230CE0094BDB78002B01D0032306E05B
:1045A000064B1B79002B01D0042300E000231846A2
:1045B00005B05DF804FB00BF253700200037002060
:1045C00082B00190094B01221A70019B084A5A607F
:1045D000019B01221A70019B00229A81019B0022FB
:1045E0005A810023184602B0704700BFFE360020F3
:1045F0002437002082B001900B4B02221A70019BDD
:104600000A4A5A60019B01221A70094BDB689AB270
:10461000019B9A81064B9B689AB2019B5A810023A9
:10462000184602B0704700BFFE3600202437002035
:104630000037002000B585B001901B4B1B699AB272
:10464000019B5A81184B5B699AB2019B9A81164B68
:104650001B78002B1FD0154B1B7883F00103DBB2B6
:10466000002B18D0FFF7C4FE0346002B13D0019B8C
:1046700002221A720E4B0422DA7000210C48FFF756
:1046800059FE0390039B002B01D0039B07E0094BCD
:1046900005221A7002E0074B03221A700023184605
:1046A00005B05DF804FB00BF00370020D0370020C4
:1046B0002C370020FE36002000B585B001901B4B42
:1046C0009B699AB2019B5A81184BDB699AB2019B94
:1046D0009A81164B1B78002B1FD0154B1B7883F04B
:1046E0000103DBB2002B18D0FFF782FE0346002B3C
:1046F00013D0019B02221A720E4B0422DA700021A1
:104700000C48FFF717FE0390039B002B01D0039B7F
:1047100007E0094B06221A7002E0074B04221A70C8
:104720000023184605B05DF804FB00BF00370020E9
:10473000D03700202C370020FE36002082B0034600
:104740008DF80730034A9DF80730137000BF02B0A0
:10475000704700BF2037002030B589B00390029128
:1047600001920093039B002B02D0019B002B01D1EF
:104770000E23D5E06C4B01221A706C4B00221A708C
:104780006B4A019B14461D460FCD0FC495E80F00E0
:1047900084E80F00674B00221A70674A009B136081
:1047A000664A0C9B1360664B4FF6FF721A80072215
:1047B0000021644822F0F6FF3C220021624822F0EA
:1047C000F1FF039B1A78604B1A70039B9A785E4B3B
:1047D0009A70039BDA785C4BDA70039B5A785A4BD9
:1047E0005A70594B039A1033103292E8030083E851
:1047F0000300554B039A0833083292E8030083E81C
:104800000300514B039A1833183292E8030083E8EF
:104810000300039B5B6A002B29D04B4B4B4A5A6227
:104820004A4B4B4A9A60484B5B6A039A526A128819
:104830001A80454B5B6A039A526A92889A800023D9
:1048400007930DE0039B5B6A9A68079B13441978F2
:104850003F4A079B13440A461A70079B013307938C
:10486000394B5B6A9B881A46079B9A42EAD8039B9E
:104870009B6A002B33D0374B374A9A60324B354A0C
:104880009A62314B9B6A344A9A602F4B9B6A039A17
:10489000926A92889A802C4B9B6A039A926A128839
:1048A0001A80002306930DE0039B9B6A9A68069B7F
:1048B00013441978284A069B13440A461A70069B2B
:1048C00001330693204B9B6A9B881A46069B9A42AB
:1048D000EAD8039B93F82C201B4B83F82C20039BD6
:1048E0001B6A002B0ED0184B1C4A1A62164B1B6A0F
:1048F000039A126A52885A80134B1B6A039A126AEF
:1049000012881A80039B5B68002B03D0039B5B68B3
:104910000D4A536002990C48FFF70CFD0590059B6A
:10492000184609B030BD00BFFC360020FF3600201D
:104930000037002020370020C8370020CC37002067
:10494000C4370020243700202C370020683700208F
:104950007437002094370020A0370020C037002093
:1049600000B589B003468DF80730664B1B7883F09D
:104970000103DBB2002B01D00823BEE0624A9DF8A0
:1049800007301370FFF7C6FD0346002B04D05F4BC2
:1049900001221A700023B0E0072200215C4822F0B7
:1049A00001FF5C4B5B78002B03D0574B1B78012B2E
:1049B0000FD0584B9B78002B03D0534B1B78012B07
:1049C00007D0544B9B78002B12D04F4B1B78022BF7
:1049D0000ED1514B1B68002B07D0504B01221A708F
:1049E0004D4B1B680820984702E04C4B00221A7080
:1049F0009DF807301846FFF79DFD03461A46424BC7
:104A00001A70454B1B68002B1DD03F4B1B78032BA6
:104A100003D03D4B1B78042B15D13E4B1B78002B4C
:104A200011D03F4B1B7883F00103DBB2002B0AD07F
:104A30003C4B00221A703C4B01221A70364B1B680B
:104A40000720984702E0384B00221A7003AB10226F
:104A50000021184622F0A6FE00238DF80C3000231A
:104A60008DF81430284B1B78042B29D801A252F85A
:104A700023F000BFB94A0200894A0200954A0200A9
:104A8000A14A0200AD4A020003AB1846FFF798FDA9
:104A9000079016E003AB1846FFF7ACFD079010E057
:104AA00003AB1846FFF7C6FD07900AE003AB1846B4
:104AB000FFF702FE079004E01C4B00221A7000E092
:104AC00000BF114B1B78002B0CD0194B1A7803AB8D
