:020000021000EC
:10F000000000012033F10100D9F001005D4B040044
:10F01000DDF00100DFF00100E1F001000000000080
:10F02000000000000000000000000000E3F001000C
:10F03000E5F0010000000000E7F00100E9F0010048
:10F04000B10D0200EDF00100EFF00100CD0C020067
:10F05000F3F00100F5F0010011030200BD0E020003
:10F06000FBF00100FDF00100FFF0010001F10100E3
:10F0700003F1010005F1010007F1010009F10100B0
:10F080000BF10100DD1F0200F752020011F1010037
:10F090001D20020015F101009138020019F1010054
:10F0A0001BF101001DF101001FF1010021F1010020
:10F0B00023F1010025F10100000000000000000024
:10F0C00027F1010029F101002BF101002DF10100D0
:08F0D0002FF1010031F10100F4
:10F0D800FEE7FEE7FEE7FEE7FEE7FEE7FEE7FEE700
:10F0E800FEE7FEE7FEE7FEE7FEE7FEE7FEE7FEE7F0
:10F0F800FEE7FEE7FEE7FEE7FEE7FEE7FEE7FEE7E0
:10F10800FEE7FEE7FEE7FEE7FEE7FEE7FEE7FEE7CF
:10F11800FEE7FEE7FEE7FEE7FEE7FEE7FEE7FEE7BF
:10F12800FEE7FEE7FEE7FEE7FEE70348854600F058
:10F13800C5F800F003B87047000001203749384887
:10F148000A1A02D0072291438D46364936480A1AD0
:10F1580006D00722914381F30988022282F314889A
:10F1680032483349334A00F048F833483349344A7F
:10F1780000F043F833483449344A00F03EF8344844
:10F188003449354A00F039F834483549354A00F0F1
:10F1980034F835483549364A00F02FF835483649AD
:10F1A800364A00F02AF836483649374A00F025F83A
:10F1B80036483749002200F02BF8364836490022F5
:10F1C80000F026F835483649091A082903DB0022D9
:10F1D8000260043001601F481F49884205D0026858
:10F1E800043003B4904703BCF7E700208646EC469A
:10F1F800002000212B4A9047FEE7884207D0521A88
:10F2080005D0037801300B700131013AF9D170470C
:10F21800884202D002700130FAE7704700000120EE
:10F2280000FC00200000012000000120C87A040032
:10F23800F02D0020CC2E0020B0F20100B0F2010029
:10F24800905C0400C87A0400F02D0020F02D002006
:10F25800905C0400905C0400905C0400905C0400E6
:10F26800905C0400905C0400905C0400905C0400D6
:10F27800C87A0400A47B0400CC2E0020CC2E0020E9
:10F28800A47B0400CC2E0020DC2E0020DC2E0020E5
:10F29800406A0020406A0020406A0020406A00203E
:08F2A800406E00209DFF0100F3
:10F2B000024B034A1A6000BF704700BFF02D0020C8
:10F2C0000090D00308B500F00DF90346002B06D0DE
:10F2D000744A754B1B681B0A03F01F03136000F090
:10F2E0002DF90346002B02D0704B714A1A6000F0D2
:10F2F00041F90346002B06D06E4A6F4B1B685B0B2F
:10F3000003F00703136000F061F90346002B05D0FA
:10F310006A4A6A4BDB6823F08073D36000F072F9AD
:10F320000346002B0ED04FF080430022C3F80C217F
:10F330004FF080430022C3F810214FF08043002299
:10F34000C3F8382500F08AF90346002B02D05C4B45
:10F3500003221A6000F09EF90346002B0BD0594B94
:10F3600005221A60584B01221A60584B00221A607D
:10F37000574B3F221A6000F0A9F90346002B76D0C4
:10F38000544A4FF08053D3F80434C2F82035514A20
:10F390004FF08053D3F80834C2F824354D4A4FF06B
:10F3A0008053D3F80C34C2F828354A4A4FF08053C2
:10F3B000D3F81034C2F82C35464A4FF08053D3F8B6
:10F3C0001434C2F83035434A4FF08053D3F8183420
:10F3D000C2F834353F4A4FF08053D3F81C34C2F89A
:10F3E00040353C4A4FF08053D3F82034C2F84435BE
:10F3F000384A4FF08053D3F82434C2F84835354AA0
:10F400004FF08053D3F82834C2F84C35314A4FF0CE
:10F410008053D3F82C34C2F850352E4A4FF0805325
:10F42000D3F83034C2F854352A4A4FF08053D3F819
:10F430003434C2F86035274A4FF08053D3F838345B
:10F44000C2F86435234A4FF08053D3F83C34C2F8F5
:10F450006835204A4FF08053D3F84034C2F86C35F9
:10F460001C4A4FF08053D3F84434C2F8703500F092
:10F4700049F90346002B05D0174A184B1B6803F0C7
:10F480004F031360164A164BD3F8883043F47003C9
:10F49000C2F88830BFF34F8FBFF36F8FFFF708FFBD
:10F4A00000BF08BD403501402403001074C0074070
:10F4B0000DF0ADBA3C05004044020010F0ED00E054
:10F4C000A0050040105600408856004018560040E5
:10F4D0001456004000C00040E40E004058020010E6
:10F4E00000ED00E0124B1B68DBB2062B1DD1114B67
:10F4F0001B6803F00F03002B17D10F4B1B6803F0A1
:10F50000F003302B01D1012310E00B4B1B6803F0FB
:10F51000F003402B01D1012308E0074B1B6803F0E7
:10F52000F003502B01D1012300E00023184670475F
:10F53000E00F00F0E40F00F0E80F00F00A4B1B684A
:10F54000DBB2062B0DD1094B1B6803F00F03002B18
:10F5500007D1074B1B6803F0F003302B01D10123C7
:10F5600000E0002318467047E00F00F0E40F00F0C1
:10F57000E80F00F0124B1B68DBB2062B1DD1114BBC
:10F580001B6803F00F03002B17D10F4B1B6803F010
:10F59000F003302B01D1012310E00B4B1B6803F06B
:10F5A000F003402B01D1012308E0074B1B6803F057
:10F5B000F003502B01D1012300E0002318467047CF
:10F5C000E00F00F0E40F00F0E80F00F00A4B1B68BA
:10F5D000DBB2062B0DD1094B1B6803F00F03002B88
:10F5E00007D1074B1B6803F0F003302B01D1012337
:10F5F00000E0002318467047E00F00F0E40F00F031
:10F60000E80F00F0124B1B68DBB2062B1DD1114B2B
:10F610001B6803F00F03002B17D10F4B1B6803F07F
:10F62000F003302B01D1012310E00B4B1B6803F0DA
:10F63000F003402B01D1012308E0074B1B6803F0C6
:10F64000F003502B01D1012300E00023184670473E
:10F65000E00F00F0E40F00F0E80F00F00A4B1B6829
:10F66000DBB2062B0DD1094B1B6803F00F03002BF7
:10F6700007D1074B1B6803F0F003302B01D10123A6
:10F6800000E0002318467047E00F00F0E40F00F0A0
:10F69000E80F00F00A4B1B68DBB2062B0DD1094BBB
:10F6A0001B6803F00F03002B07D1074B1B6803F007
:10F6B000F003302B01D1012300E0002318467047EE
:10F6C000E00F00F0E40F00F0E80F00F00A4B1B68B9
:10F6D000DBB2062B0DD1094B1B6803F00F03002B87
:10F6E00007D1074B1B6803F0F003502B01D1012316
:10F6F00000E0002318467047E00F00F0E40F00F030
:10F70000E80F00F0124B1B68DBB2062B1DD1114B2A
:10F710001B6803F00F03002B17D10F4B1B6803F07E
:10F72000F003302B01D1012310E00B4B1B6803F0D9
:10F73000F003402B01D1012308E0074B1B6803F0C5
:10F74000F003502B01D1012300E00023184670473D
:10F75000E00F00F0E40F00F0E80F00F07047704792
:10F7600082B003468DF8073008499DF907305B09E0
:10F770009DF8072002F01F02012000FA02F2603318
:10F7800041F8232000BF02B0704700BF00E100E055
:10F79000BFF34F8F0549054BDB6803F4E062044B70
:10F7A0001343CB60BFF34F8F00BFFDE700ED00E0D8
:10F7B0000400FA0582B001904FF0A043184602B051
:10F7C000704700B585B00190084611461A460346B9
:10F7D0008DF803300B468DF8023013468DF801305A
:10F7E00001AB1846FFF7E6FF0390019A9DF803105E
:10F7F0009DF802305B0019439DF801309B001943CE
:10F800009DF818301B0219439DF81C301B04194346
:10F81000039B02F5E07243F8221000BF05B05DF8CB
:10F8200004FB00B585B003900B468DF80B309DF8B6
:10F830000B20002301930023009313460022002194
:10F840000398FFF7BEFF00BF05B05DF804FB00B5ED
:10F8500085B0019001AB1846FFF7ACFF0390039809
:10F8600000F00AF80246019B22FA03F303F00103B9
:10F87000184605B05DF804FB82B00190019BD3F8F7
:10F880001035184602B070473EDF704700BF18467B
:10F8900084B00190244B0393019B002B40D0234B59
:10F8A0001A680399019B00BF00BF00BF00BF00BFE3
:10F8B00000BF00BF00BF8A422FD000BF00BF00BF03
:10F8C00000BF00BF00BF00BF00BF00BF00BF00BF40
:10F8D00000BF00BF00BF00BF00BF00BF00BF00BF30
:10F8E00000BF00BF00BF00BF00BF00BF00BF00BF20
:10F8F00000BF00BF00BF00BF00BF00BF00BF00BF10
:10F9000000BF00BF00BF00BF00BF00BF00BF00BFFF
:10F9100000BF00BF00BF00BF00BF013BC3D10193C8
:10F9200000BF04B0704700BF0024F400F02D002099
:10F9300000B583B00190019B4FF47A7202FB03F390
:10F940001846FFF7A5FF00BF03B05DF804FB82B0C7
:10F950004FF010235B690193019BB3F1FF3F04D18A
:10F960004FF080535B691B0300E0019B184602B017
:10F9700070470000024BD3F804351846704700BFAB
:10F9800000B0004070B58AB0079006910592059BC3
:10F990000993099B5B68184603F0EAFF0546099B3B
:10F9A0001B881E46099B9C68099B9B68184604F0AF
:10F9B00063FB0346184603F0DBFF03460393029400
:10F9C00001960095069B079A0749012003F0E7FF7F
:10F9D0000520FFF7ADFF059A0699079801F0D4FBC3
:10F9E00000BF0AB070BD00BF945C040000B585B0D4
:10F9F0000D49032003F0C2FF0C4B03930C4B029301
:10FA0000039B0093029B01939DED007ADDED017A4B
:10FA1000B0EE470AF0EE670A064825F05BFA00BF31
:10FA200005B05DF804FB00BFF85C0400CDCC8C3F52
:10FA30000000C841DC2E002084B0039001AB83E8B5
:10FA40000600039B103301AA92E8030018600433F8
:10FA5000197000BF04B0704700B587B0F1EE103ADE
:10FA60000193019B23F09F030293029BE1EE103A66
:10FA7000F1EE103A03932620FFF772FEFFF704FF22
:10FA80000590059B0493049B002B04D0044AB421E9
:10FA9000049801F061FB00BF07B05DF804FB00BFF4
:10FAA000245D040086B000BF06B0704700B583B087
:10FAB00025F0FEFA0023019306E0019B184625F08D
:10FAC000D3FA019B01330193019B022BF5DD6420E6
:10FAD000FFF72EFF00BF03B05DF804FB10B588B040
:10FAE0000390414B1B6803F48043002B2CD03F4B09
:10FAF0001B68032B28DD2F213D4825F071FC0346B0
:10FB0000002B06D02F213A4825F06AFC03465C1CE6
:10FB10000EE05C21364825F063FC0346002B06D03E
:10FB20005C21334825F05CFC03465C1C00E0304C53
:10FB3000FFF720FF02462F4B009313464FF48772C6
:10FB40002146042009F098F901238DF818300F237D
:10FB50008DF819300F238DF81A300F238DF81B30D4
:10FB600006AB93E806002448FFF766FF05AB18468E
:10FB70001AF000FA1C4B1B6803F48043002B2FD0B3
:10FB80001A4B1B68032B2BDD2F21194825F028FC6D
:10FB90000346002B06D02F21154825F021FC0346F3
:10FBA0005C1C0EE05C21124825F01AFC0346002B79
:10FBB00006D05C210E4825F013FC03465C1C00E0D7
:10FBC0000B4CFFF7D7FE0246BDF8143001930B4BE8
:10FBD0000093134640F217122146042009F04CF915
:10FBE00000BF08B010BD00BFF82D0020FC2D002084
:10FBF000245D04009C5D0400DC2E0020B85D040040
:10FC000082B00190019A044B1033186810601B7980
:10FC10001371019802B07047DC2E002030B58BB014
:10FC20000990089106A981E80C003B4B1B6803F47E
:10FC30008043002B38D0394B1B68032B34DD2F2138
:10FC4000374825F0CDFB0346002B06D02F21344842
:10FC500025F0C6FB03465C1C0EE05C21304825F015
:10FC6000BFFB0346002B06D05C212D4825F0B8FBD6
:10FC700003465C1C00E02A4CFFF77CFE05469DF81D
:10FC800018309DF819209DF81A109DF81B0004905B
:10FC9000039102920193234B00932B464FF49172F0
:10FCA0002146042009F0E8F89DF81830012B07D10F
:10FCB0009DF81930002B03D0002025F0C3F902E095
:10FCC000002025F0D1F99DF81830012B07D19DF8BF
:10FCD0001A30002B03D0022025F0B4F902E00220F4
:10FCE00025F0C2F99DF81830012B07D19DF81B3083
:10FCF000002B03D0012025F0A5F902E0012025F01A
:10FD0000B3F9099B1A4606AB186810601B7913718A
:10FD100009980BB030BD00BFF82D0020FC2D00204D
:10FD2000245D0400F45D040010B584B003908DF8E8
:10FD300008103E4B1B6803F48043002B2FD03C4B34
:10FD40001B68032B2BDD2F213A4825F049FB034686
:10FD5000002B06D02F21374825F042FB03465C1CC0
:10FD60000EE05C21334825F03BFB0346002B06D018
:10FD70005C21304825F034FB03465C1C00E02D4C30
:10FD8000FFF7F8FD02469DF8083001932A4B0093D7
:10FD9000134640F23B122146042009F06DF89DF80D
:10FDA0000830052B3ED801A252F823F0C5FD010012
:10FDB000CFFD010025FE0100E7FD0100FFFD010070
:10FDC00017FE01001D4B184602F0C4F92BE01B4B37
:10FDD000184602F0BFF9194B00224FF400411846B3
:10FDE00002F086F91FE0154B184602F0B3F9134BE9
:10FDF00000224FF42031184602F07AF913E00F4B3D
:10FE0000184602F0A7F90D4B00224FF4A021184626
:10FE100002F06EF907E0094B184602F09BF9FFF774
:10FE2000E5FD00E000BF00BF04B010BDF82D0020CC
:10FE3000FC2D0020245D0400205E0400F42E002030
:10FE400010B586B003902E4B1B6803F48043002B43
:10FE50002CD02C4B1B68032B28DD2F212A4825F0A2
:10FE6000BFFA0346002B06D02F21274825F0B8FA09
:10FE700003465C1C0EE05C21234825F0B1FA0346E2
:10FE8000002B06D05C21204825F0AAFA03465C1C12
:10FE900000E01D4CFFF76EFD02461C4B009313461D
:10FEA00040F25D122146042008F0E6FF184B194A83
:10FEB0005A60174B184A9A60154B184ADA600021AD
:10FEC000134824F0D1FF0590059B002B05D00E4A66
:10FED00040F26111059801F03FF90D4B1B8818465F
:10FEE00016F0A4FB0490049B002B05D0064A4FF4A7
:10FEF000B171049801F030F900BF06B010BD00BF29
:10FF0000F82D0020FC2D0020245D0400405E04003C
:10FF1000DC2E002001FC01001DFC010029FD010078
:10FF200008B5114B012283F825200F4B0122DA84FA
:10FF30000D4B012283F829200B4B0C4A9A630A4B84
:10FF40000B4A1A60084B0B4A5A60074B072283F88A
:10FF50003C20054B01221A74034B0722DA74024835
:10FF60001BF064FE00BF08BD142F0020185F0400C2
:10FF7000DDFA010041FE010000B583B000230193CA
:10FF8000044A0121044802F083F800BF03B05DF881
:10FF900004FB00BFEDF90100905C040000B589B0DE
:10FFA000002003F095FC0690069B0593059B002B13
:10FFB00005D0364A40F29D11059801F0CDF834493C
:10FFC000032003F0DBFC03211E20FFF72AFC1E2088
:10FFD000FFF73DFC0346002B25D104238DF8133099
:10FFE000FFF7B5FC0346A3F5E0430393FFF7AFFC2F
:10FFF00003461A469DF813301B03D31AA3F5E043BA
:020000022000DC
:10000000079306E0079801F081F8079B03F58053FA
:100010000793039A079B9A42F4D21E49032003F0E8
:10002000ADFCFFF7B5FB1C4A04214FF4804008F0FB
:100030000DFF1A4A3C21082001F04AF90290029B68
:100040000193019B002B05D0104A4FF4D971019800
:1000500001F082F801F0E8FF0690069B0093009BF8
:10006000002B05D0094A4FF4DA71009801F074F8BA
:10007000FFF71CFDFFF716FDFFF77EFFFFF750FFB0
:1000800001F0ECF9FFF7E8FCFAE700BF245D04009B
:10009000905E0400DC5E0400118E0200542F0020EC
:1000A00000B583B00346ADF80630BDF806301846FB
:1000B00000F026F803461B68012B0CBF0123002328
:1000C000DBB2184603B05DF804FB00B585B003460B
:1000D000ADF80630BDF80630184600F011F80346BA
:1000E0001A4600231360BDF80630184600F008F8E1
:1000F00003461B680393039B00BF05B05DF804FB38
:1001000082B00346ADF80630BDF8063003F18043F7
:1001100003F5C043184602B07047000082B001905A
:10012000034BD3F80423019B1340184602B07047D9
:100130000060004082B00190054A019B03F5A27364
:1001400052F823301B0A03F01F03184602B0704711
:100150000060004082B00190064A019B03F5A27343
:1001600052F823301B0C03F00303DBB2184602B035
:10017000704700BF0060004082B001904FF0A04384
:10018000184602B0704700B585B001900B468DF857
:10019000033001AB1846FFF7EFFF0390019A019976
:1001A000039B01F5E07153F8213023F44031039BA8
:1001B00002F5E07243F82210019A0199039B01F5C0
:1001C000E07153F821309DF8031009041943039B93
:1001D00002F5E07243F8221000BF05B05DF804FBA1
:1001E00000B585B0019001AB1846FFF7C5FF03903D
:1001F000019A039B02F5E07253F822301B0C03F0C6
:100200000303DBB2184605B05DF804FB82B0019031
:10021000019BD3F81035184602B0704700B587B07F
:100220000390029101924FF0A0430493039B059326
:1002300011E0059B9B0006AA134453F8083C18469E
:10024000FFF7E4FF0246019B1A60019B0433019310
:10025000059B01330593039A029B1A44059B9A421E
:10026000E7D800BF07B05DF804FB84B001900091AF
:10027000009B0393019BDB080293019B03F00703A0
:1002800001930122019B02FA03F30399029A0A44A3
:1002900012781340184604B0704784B00190009162
:1002A000009B0393019BDB080293019B03F0070370
:1002B0000193039A029B13440399029A0A44127809
:1002C00051B20120019A00FA02F252B20A4352B22C
:1002D000D2B21A7000BF04B07047000082B0019023
:1002E000044A019B1344403393F90030184602B08E
:1002F000704700BF2433002082B00190034A019B65
:1003000052F82330184602B0704700BF2433002053
:1003100000B595B000231393002303934FF480732B
:10032000ADF84630012310930023129321E0BDF86D
:1003300046301846FFF7B4FE0346002B0ED0109847
:10034000FFF7ECFE0346002B08D0BDF846301846F8
:10035000FFF7BBFE139A109B13431393109B5B0094
:100360001093BDF846300433ADF84630129B01338C
:100370001293129B072BDAD94FF4BE70FFF790FE51
:100380000346002B0DD04FF4BE70FFF79EFE139B6B
:1003900043F00043139303AB1A4601210020FFF7FB
:1003A0003DFF139BDBB2002B29D0012310930023C8
:1003B000129321E0109A139B1340002B16D0129831
:1003C000FFF7B8FE0D901298FFF7C4FE03468DF8B4
:1003D00033301298FFF790FF0B900B9B002B05D04A
:1003E0009DF833200B9B11460D989847109B5B009E
:1003F0001093129B01331293129B072BDAD9139B94
:10040000002B80F2EE8000238DF83B300023029316
:1004100000230F930AE00F9B9B0014AA13444FF094
:10042000FF3243F84C2C0F9B01330F930F9B002B93
:10043000F1D000238DF83B300023129378E06B4A13
:10044000129B1344603393F900308DF82B309DF8E4
:100450002B3023F0C0030993644A129B134460338A
:1004600093F90030B3F1FF3F5FD001AB1946099813
:10047000FFF7FBFE0346002B57D09DF82B309B095E
:100480008DF823300998FFF729FF03461846FFF738
:1004900033FF0790079B002B03D19DF82330032BDC
:1004A00043D19DF82330032B04D102AB19460998A0
:1004B000FFF7F3FE0998FFF793FE03468DF81B3014
:1004C00003AB19460998FFF7D0FE0590059B002B5A
:1004D00003D09DF81B30022B06D0059B002B24D1A6
:1004E0009DF81B30032B20D19DF82330032B13D113
:1004F0009DF81B30022B01D1032300E002238DF86D
:1005000013309DF8133019460998FFF73CFE9DF80B
:100510003B3001338DF83B30079B002B05D09DF815
:100520002320079B114609989847129B0133129389
:10053000129B072B83D99DF83B30002B4CD0012315
:100540008DF83A306B461A4601210020FFF766FE0F
:1005500000230F9314E00F9B9B0014AA134453F83D
:10056000502C0F9B9B0014A90B4453F8443C9A4217
:1005700003D000238DF83A3005E00F9B01330F9331
:100580000F9B002BE7D09DF83A30002B03D00023BF
:100590008DF83B3020E000230F931AE00F9B9B0067
:1005A00014AA134453F8502C0F9B9B0014A90B441E
:1005B00043F8442C0F9B9B0014AA134453F8482C77
:1005C0000F9B9B0014A90B4443F84C2C0F9B013349
:1005D0000F930F9B002BE1D09DF83B30002B7FF455
:1005E00028AF00BF15B05DF804FB00BF2433002026
:1005F00082B001900B468DF803309DF80330019ACC
:10060000134401221A6000BF02B0704784B0019009
:100610000B46ADF80230BDF80230019A13440022B7
:100620001A60BDF80230019A13441B680393039BC0
:1006300000BF04B0704782B001900B46ADF80230A5
:10064000BDF80230019A13441B68002B14BF01232C
:100650000023DBB2184602B0704782B001900091CF
:10066000019B009AC3F8042300BF02B0704782B018
:100670000190019B0522C3F8002500BF02B070471E
:1006800082B00190019B0022C3F8002500BF02B098
:10069000704784B00190019BD3F8C4340393019B4D
:1006A000039AC3F8C424039B184604B0704782B071
:1006B0000190019BD3F81835DBB2184602B07047A1
:1006C00082B001900B468DF803309DF80320019B0A
:1006D000C3F81C2500BF02B0704782B001900091A2
:1006E000019B009AC3F8002200BF02B0704784B09B
:1006F000019003230393019B03F00103002B02D01D
:100700004FF402430393019B03F00203002B02D03A
:1007100048F201230393019B03F00403002B02D052
:1007200048F202230393039B184604B0704700B5B8
:1007300085B003900291009313468DF80730009B1B
:100740001B789DF807209A4210D9009B1B781A4607
:10075000029B13441B7819460398FFF7B1FF009BD7
:100760001B780133DAB2009B1A700DE09DF8183047
:10077000002B05D01C210398FFF73AFF002304E06B
:1007800014210398FFF734FF0123184605B05DF8E4
:1007900004FB10B584B003900291009313468DF8CA
:1007A0000730009B1B789DF807209A4228D9009BB0
:1007B0001B781A46029B9C180398FFF778FF0346A4
:1007C0002370009B1B780133DAB2009B1A70009BE8
:1007D0001B781A469DF80730013B9A4204D102214A
:1007E0000398FFF77AFF05E0009B1B789DF8072030
:1007F0009A4204D020210398FFF7FAFE00E000BFE0
:1008000004B010BD00B589B0059004910392029325
:10081000049B1B78002B05D1039B1B789DF8282097
:100820009A4201D1012300E000238DF81F309DF88A
:100830001F3003F001038DF81F30049B1B78002B41
:100840000FD04FF492710598FFF7E0FE4FF48E71D0
:100850000598FFF7DBFE4FF484710598FFF7D6FE8D
:1008600071E04FF492710598FFF7E5FE0346002B07
:100870000CD04FF492710598FFF7C8FE142105982B
:10088000FFF7B6FE049B01221A705CE04FF48E71F4
:100890000598FFF7D0FE0346002B2BD04FF48E7146
:1008A0000598FFF7B3FE4FF492710598FFF7C3FE6A
:1008B0000346002B0CD04FF492710598FFF7A6FE6B
:1008C00014210598FFF794FE049B01221A703AE068
:1008D0009DF828209DF82C300093039B02990598E1
:1008E000FFF725FF034683F00103DBB2002B2AD07C
:1008F00000233CE04FF484710598FFF79CFE03460B
:10090000002B20D04FF484710598FFF77FFE4FF441
:1009100092710598FFF78FFE0346002B0CD04FF421
:1009200092710598FFF772FE14210598FFF760FE9B
:10093000049B01221A7006E09DF82820039B02996F
:100940000598FFF726FF9DF81F30002B0ED04FF4BF
:1009500082710598FFF76FFE0346002B06D04FF417
:1009600082710598FFF752FE002300E0012318462C
:1009700009B05DF804FB00B58BB0059004910392BB
:100980008DF80B300023099342F2107307934FF454
:1009900082710498FFF73AFE4FF492710498FFF7C2
:1009A00035FE4FF48E710498FFF730FE4FF48471DA
:1009B0000498FFF72BFE00210498FFF78EFE059B9D
:1009C000002283F82620059B002283F82320202183
:1009D0000498FFF70DFE08210498FFF709FE059B18
:1009E00003F126019DF80B209DF8303000930B4653
:1009F00003990498FFF79BFE059B1B68002B0DD005
:100A0000059B40F286229A60059B9B6819460498D4
:100A1000FFF723FE33E0079B013B0793079B002B67
:100A200012DD059B03F12301059B03F126029DF8CE
:100A3000303001939DF80B300093039B0498FFF72F
:100A4000E1FE0346002BE6D1059B93F82330002BF3
:100A50000AD00498FFF71DFE0890089B002B03D0D6
:100A60000898FFF744FE0990079B002B07DC0498C9
:100A7000FFF706FE0498FFF7FAFD03230993099B8D
:100A800018460BB05DF804FB00B58BB005900491DF
:100A900003928DF80B300023099342F210730793F1
:100AA0004FF482710498FFF7B1FD4FF492710498EE
:100AB000FFF7ACFD4FF48E710498FFF7A7FD4FF4DC
:100AC00084710498FFF7A2FD059B002283F826207D
:100AD000059B002283F823209DF80B30012B04D1C5
:100AE00002210498FFF7F9FD03E001210498FFF7C4
:100AF000F4FD20210498FFF77BFD00210498FFF707
:100B000077FD059B1B68002B0DD0059B40F28622CC
:100B10009A60059B9B6819460498FFF79EFD32E09A
:100B2000079B013B0793079B002B11DD059B03F1FE
:100B30002301059B03F12602002301939DF80B304E
:100B40000093039B0498FFF75DFE0346002BE7D15B
:100B5000059B93F82330002B0AD00498FFF799FDEA
:100B60000890089B002B03D00898FFF7C0FD099060
:100B7000079B002B07DC0498FFF782FD0498FFF722
:100B800076FD03230993099B18460BB05DF804FB1F
:100B900010B58AB003900291029B03F12301029BDE
:100BA00003F12600029BDC69029B93F82030029A35
:100BB00092F8212001920093234602460398FFF702
:100BC00021FE0346002B7DD1029B93F8233083F056
:100BD0000103DBB2002B3FD0029B1B7B022B03D017
:100BE000029B1B7B032B37D1029BDA69029B1B699B
:100BF0009A4231D1029B5A69029BDA61029BDA7BED
:100C0000029B83F82020029B9B6903F02003002BAA
:100C100014BF01230023DAB2029B83F82120029B38
:100C20001B7B032B0ED1029BDA69029B93F82010E9
:100C3000029B93F8213000930B4603990298FFF72B
:100C40009AFE40E0029BDA69029B93F820300399F8
:100C50000298FFF719FF36E0029A06AB0C3207CA7A
:100C600083E80700029B93F82330002B15D00398EC
:100C7000FFF70FFD0990099B03F00203002B03D03F
:100C800001238DF814300BE0099B03F00403002BC3
:100C900006D002238DF8143002E000238DF81430C2
:100CA000029B002283F82420029B9B6903F004032B
:100CB000002B08D1029B1B68029A516805AA1046B6
:100CC000984700E000BF0AB010BD000008B5034916
:100CD0000348FFF75DFF00BF08BD00BF9033002051
:100CE0000030004082B001904FF08042019BC2F87A
:100CF000083300BF02B0704784B00346ADF8063039
:100D0000BDF8063003F1804300221A60BDF80630BA
:100D100003F180431B680393039B00BF04B070473B
:100D200082B00346ADF80630BDF8063003F18043CB
:100D30001B68002B14BF01230023DBB2184602B04E
:100D4000704784B00190019B1B680393039B002BA9
:100D500003D0039B1A68019B1A60039B184604B0DA
:100D60007047000000B585B003468DF807309DF848
:100D70000730002B02D10C4B039301E00B4B039384
:100D80000398FFF7DEFF0290029B002B06D0029B28
:100D90005B689DF8072010469847F1E700BF00BF49
:100DA00005B05DF804FB00BFC0330020C83300204D
:100DB00008B54FF48070FFF7B3FF0346002B0CD04B
:100DC0004FF48070FFF798FF0120FFF78BFF0E4B69
:100DD00001225A700020FFF7C5FF4FF48270FFF721
:100DE0009FFF0346002B0CD04FF48270FFF784FF67
:100DF0000220FFF777FF044B01229A700120FFF7D2
:100E0000B1FF00BF08BD00BFB833002000B583B0FC
:100E10000190019B002B02D10020FFF7A3FF00BF30
:100E200003B05DF804FB82B003468DF807309DF8EF
:100E3000073003F1804303F5E04301221A6000BF4D
:100E400002B0704782B00346ADF80630BDF80630F8
:100E500003F1804303F5E0431B68002B14BF01231B
:100E60000023DBB2184602B0704784B00346ADF8E9
:100E70000630BDF8063003F1804303F5E04300225D
:100E80001A60BDF8063003F1804303F5E0431B68A8
:100E90000393039B00BF04B07047000082B0019031
:100EA0000091054A019BC2F82C36034A009BC2F808
:100EB000303600BF02B070470070004000B58DB002
:100EC0004FF48270FFF7BEFF0346002B46D04FF46D
:100ED0008270FFF7CAFF8C4B93F82E3083F001032A
:100EE000DBB2002B04D1884B93F82F30002B35D088
:100EF00000238DF81830844B5B680793824B1B8965
:100F00009BB2ADF82030804BDB68002B03D17E4BC9
:100F100000221A7419E07C4B1A8B7B4B5A837A4B54
:100F2000DB68794A5360784B1A8B774B1A81764B82
:100F30000022DA60744B93F82E3083F00103DBB2A9
:100F4000002B02D00020FFF76EFF6F4B1B6806AA34
:100F5000104698476C4B002283F82F206A4B93F879
:100F60002E30002B62D04FF48070FFF76BFF0346EA
:100F7000002B5BD04FF48070FFF777FF624B5A8BEA
:100F8000614B93F82D309BB29A421CD95E4B5A8B21
:100F90005D4B93F82D309BB2D31A9AB25A4B5A83B9
:100FA000594B5A68584B1B899BB21946564B5B8B61
:100FB000CB1A5B001A44544B93F82D301946104657
:100FC000FFF76CFF2BE0504B5A8B4F4B93F82D30B3
:100FD0009BB29A4214D14C4BDB68002B10D04A4B89
:100FE000012283F82F20484B00225A83464BDA68AF
:100FF000454B93F82D3019461046FFF74FFF0EE092
:10100000414B5A8B404B93F82D309BB29A4206D1FC
:101010003D4B012283F82F203B4B00225A834FF493
:101020008270FFF722FF0420FFF7FDFE4FF4887067
:10103000FFF708FF0346002B0ED04FF48870FFF730
:1010400014FF314B00221A7402238DF80C302E4B02
:101050001B6803AA104698474FF48A70FFF7F2FE08
:101060000346002B07D04FF48A70FFF7FEFE264B95
:1010700000221A7444E0244B5B690B933DE00B9B08
:10108000B3FA83F30A934FF000420A9B22FA03F368
:10109000DB430B9A13400B930A9B9BB246339BB2E4
:1010A0009B00ADF82630BDF826301846FFF7CAFE83
:1010B0000346002B21D0BDF826301846FFF7D5FE99
:1010C00001238DF80030BDF82630A3F58C73DB08C2
:1010D000DBB28DF80430BDF82630A3F58C7303F035
:1010E0000403002B0CBF01230023DBB28DF8053075
:1010F000054B1B686A46104698470B9B002BBED1D8
:1011000000BF0DB05DF804FBCC33002082B001902D
:10111000104B0222C3F8042500BF0E4BD3F8003455
:10112000002BFAD00B4A019BC2F8083500BF094BCF
:10113000D3F80034002BFAD0064B0022C3F8042564
:1011400000BF044BD3F80034002BFAD000BF02B02C
:10115000704700BF00E0014000B589B003900291E4
:101160000192029B9BB2ADF81430019B0693039B46
:10117000079305AB1A46002144F20100FEF702FC7A
:1011800000BF09B05DF804FB86B0039002910192A4
:1011900001238DF817309DF81730204A039B136008
:1011A0001E4A029B53601D4A019B9360039B44F2BD
:1011B0000102934212D044F20202934222D1019BD7
:1011C000164AD360154BDB681B881A46134B9A618D
:1011D000124BDB685B68114AD36113E0019B0F4A35
:1011E00013610E4B1B699B680C4A53610B4B1B69C7
:1011F0001B881A46094B9A61084B1B695B68074AB2
:10120000D36100BF72B600BF9DF81730DBB2002B70
:10121000FAD162B600BF06B0704700BFFC330020B1
:1012200082B00190019B03F00303002B0CBF01234C
:101230000023DBB2184602B07047000082B00346BC
:101240008DF807309DF807309AB2064B1B889A42FA
:1012500004D29DF807300133DBB200E000231846CA
:1012600002B070472834002000B583B00B4B1B78C8
:101270008DF807300A4B1B78DBB21846FFF7DEFF0C
:1012800003461A469DF8073093420CBF0123002302
:10129000DBB2184603B05DF804FB00BF2434002025
:1012A0002534002082B0084B1B788DF80730074B9F
:1012B0001B78DBB29DF807209A420CBF0123002364
:1012C000DBB2184602B070472434002025340020D9
:1012D00000B585B003460092ADF806300B46ADF878
:1012E0000430BDF8043001339BB2DB00ADF80E30A2
:1012F0000098FFF795FF034683F00103DBB2002B54
:1013000001D0072317E00E4A009B1360BDF80E3092
:10131000009A13440B4A13600B4B00221A700B4BBC
:1013200000221A700A4ABDF806301380094ABDF837
:10133000043013800023184605B05DF804FB00BF9D
:101340001C340020203400202534002024340020C8
:10135000263400202834002000B587B003900B46C7
:101360000192ADF80A30374B1B88BDF80A209A422B
:1013700060D84FF6FF73ADF8123000238DF81130AE
:101380000DF11103184601F08BF9FFF76DFF0346CD
:10139000002B0ED12C4B1B78DBB2ADF812302A4B50
:1013A0001B78DBB21846FFF749FF03461A46264B67
:1013B0001A709DF81130184601F07CF9BDF8123012
:1013C0004FF6FF72934232D0204B1A68BDF81230AC
:1013D000DB001344019A1A60039B002B1CD0BDF85C
:1013E0000A30002B18D01A4B1B68BDF81220154983
:1013F000098801FB02F21344BDF80A20039918463C
:1014000024F008F8114B1A68BDF81230DB001344C1
:10141000BDF80A209A8007E00C4B1A68BDF812301C
:10142000DB00134400229A800023059304E0042388
:10143000059301E009230593059B184607B05DF865
:1014400004FB00BF26340020253400201C3400207B
:1014500020340020002318467047000000B585B0F6
:101460002FE0204B1B78DBB2ADF80E301E4B1B6813
:10147000BDF80E201D49098801FB02F213440293B6
:101480001B4B1A68BDF80E30DB0013449B88ADF887
:101490000630174B1A68BDF80E30DB0013441B688A
:1014A0000093BDF80620009B1146029898470D4B0B
:1014B0001B78DBB21846FFF7C1FE03461A46094BFC
:1014C0001A70FFF7C7FF034683F00103DBB2002B5E
:1014D00004D0FFF7E7FE0346002BC2D000BF05B0E3
:1014E0005DF804FB24340020203400202634002042
:1014F0001C34002082B003468DF8073007499DF95F
:1015000007305B099DF8072002F01F02012000FA56
:1015100002F241F8232000BF02B0704700E100E072
:1015200082B003468DF8073008499DF907305B0902
:101530009DF8072002F01F02012000FA02F220337A
:1015400041F8232000BF02B0704700BF00E100E077
:1015500082B003468DF8073008499DF907305B09D2
:101560009DF8072002F01F02012000FA02F240332A
:1015700041F8232000BF02B0704700BF00E100E047
:1015800082B003468DF8073008499DF907305B09A2
:101590009DF8072002F01F02012000FA02F26033DA
:1015A00041F8232000BF02B0704700BF00E100E017
:1015B00082B0034600918DF807309DF90730002B6B
:1015C0000CDA0D499DF8073003F00F03043B009A35
:1015D000D2B25201D2B20B441A7609E007499DF902
:1015E0000730009AD2B25201D2B20B4483F80023E2
:1015F00000BF02B0704700BF00ED00E000E100E076
:1016000084B00190244B0393019B002B40D0234BCB
:101610001A680399019B00BF00BF00BF00BF00BF55
:1016200000BF00BF00BF8A422FD000BF00BF00BF75
:1016300000BF00BF00BF00BF00BF00BF00BF00BFB2
:1016400000BF00BF00BF00BF00BF00BF00BF00BFA2
:1016500000BF00BF00BF00BF00BF00BF00BF00BF92
:1016600000BF00BF00BF00BF00BF00BF00BF00BF82
:1016700000BF00BF00BF00BF00BF00BF00BF00BF72
:1016800000BF00BF00BF00BF00BF013BC3D101933B
:1016900000BF04B0704700BF0024F400F02D00200C
:1016A00000B583B00190064A019BC2F808350721B6
:1016B0001120FFF77DFF00BF03B05DF804FB00BF02
:1016C0000010014008B50D4B4FF48032C3F844239D
:1016D0000A4B4FF48032C3F804231120FFF750FF68
:1016E0001120FFF707FF054B01221A602F20FFF79B
:1016F00087FF034B01221A7000BF08BD0010014094
:101700004A35002008B51120FFF70AFF0E4B4FF4B1
:101710008032C3F848230C4B4FF48032C3F80823BF
:10172000094B01225A602F20FFF76AFF064B012266
:101730009A60064B00221A602F20FFF761FF044BCE
:1017400000221A7000BF08BD001001403C35002087
:101750004A350020024BD3F804351846704700BFC5
:101760000010014082B001900091019A009BD31AB1
:1017700023F07F43184602B07047000082B001900A
:10178000034A019BC2F8403500BF02B0704700BF5A
:101790000010014086B00190284B1B68002B03D13C
:1017A000264A019B136045E0019B1A68234B1B6886
:1017B0001B689A4210D8214B1B68204A1268116896
:1017C000019A12688A1A1A601C4B1A68019BDA6126
:1017D0001A4A019B13602DE0019B1B680393174B72
:1017E0001B680593154B1B68049309E0049B1B6859
:1017F000039AD31A0393049B0593049BDB69049318
:10180000049B002B04D0049B1A68039B9A42EDD3DF
:10181000049B002B05D0049B1A68039BD21A049BDF
:101820001A60019B039A1A60019B049ADA61059B76
:10183000019ADA6100BF06B0704700BF383500205A
:1018400000B587B001902A4B1B680393284B1B6897
:101850000593059B049308E0049A019B9A4208D0E3
:10186000049B0593049BDB690493049B002BF3D139
:1018700000E000BF049B002B01D1002333E0059A58
:10188000049B9A4214D11A4B1B68DB69184A1360F7
:10189000174B1B68002B0BD1164B01229A60164B7D
:1018A00000221A60154B01221A702F20FFF7A8FEA4
:1018B000049B1B680293049BDA69059BDA61059B14
:1018C000DB690493049B002B05D0049B1A68029BE0
:1018D0001A44049B1A60064B1B68039A9A4214BF71
:1018E00001230023DBB2184607B05DF804FB00BFFC
:1018F00038350020001001403C3500204B350020D9
:1019000008B51120FFF724FE00BF08BD08B514205C
:10191000FFF71EFE00BF08BD00B585B001900B4665
:10192000ADF80230BDF80230082B0CBF01230023B4
:10193000DBB20393039B002B05D1094A4FF4B77127
:101940000020FFF709FC019B0293029B1B68029A8F
:1019500052681046984700BF05B05DF804FB00BF11
:10196000285F040000B587B00190019B5B6902937A
:10197000019B9B69039302AB0A4A08211846FFF7B3
:10198000EBFC0590059B0493049B002B05D0064AB5
:101990004FF4C1710498FFF7DFFB00BF07B05DF89B
:1019A00004FB00BF19190200285F040000B585B0D0
:1019B0002B4B1B68002B4ED000230193FFF7CAFE70
:1019C0000246284B1B6819461046FFF7CBFE0290D3
:1019D000234B1B6803931DE0039B1A68029B9A42EA
:1019E0001CD8039B1B68029AD31A0293039B1B68A3
:1019F000019A13440193039B0093039BDB690393B8
:101A0000009B1B7C002B05D0009B00221A740098C1
:101A1000FFF7A8FF039B002BDED100E000BF124BB5
:101A20001A78124B1B789A420CD1104B1B78013359
:101A3000DAB20E4B1A700D4B1B78022B02D10B4BF6
:101A400000221A70094B1B781946094A019B42F87B
:101A50002130FFF75BFF00BF05B05DF804FB00BF5E
:101A6000383500203C35002048350020493500201D
:101A70004035002082B00190184B1A78184B1B7823
:101A80009A4223D0154B1B780133DAB2134B1A70EC
:101A9000124B1B78022B02D1104B00221A700F4BF5
:101AA0001B781A460F4B53F82220019B1A60019BAA
:101AB0001A680D4B1B6813440B4A13600A4B1B68D2
:101AC00023F07F43084A1360012303E0019B0022B7
:101AD0001A600023184602B0704700BF4835002046
:101AE00049350020403500203C35002088B0039067
:101AF000029101920023079338E0204B1B68069364
:101B0000069B1A68039B9A4206D9069B1A68039B98
:101B1000D21A069B1A602DE0069B1B68039AD31A03
:101B20000393069B1B68079A13440793069B0022A6
:101B30001A60124B1B680593069BDB690F4A136002
:101B4000069BDB68002B11D0029A079B134423F0FD
:101B50007F42069B5A60069BDA68069B9A60019B4F
:101B60001A68069BDA61019B059A1A60034B1B6891
:101B7000002BC2D100BF08B0704700BF383500202D
:101B800000B589B0019000238DF81F30664B1B68AB
:101B90000593AAE0019B002B05D0019B0693069BB1
:101BA000DB69019361E0614B1B781A4613465B00C9
:101BB0001344DB005D4A1344043304935B4B1B78EE
:101BC0000133DAB2594B1A70584B1A78574B9B783D
:101BD0009A4202D1554B00221A70049B5B6806930F
:101BE000049B1B78022B04D0032B1BD0012B1FD08E
:101BF0001DE0049B5B681846FFF722FE0346002B9E
:101C000002D001238DF81F30069B00221A746CE06D
:101C1000454B1B680393039B00221A74039BDB69EB
:101C2000414A1360404B1B68002BF1D15DE05CE042
:101C300000BF069B1B7C002B00D056E0049B9A68DB
:101C4000069B5A60049BDA68069B9A60049B1A699B
:101C5000069BDA60049B5A69069B9A61344B1B7899
:101C6000002B02D0069B00225A60069B5A68314B1B
:101C70001B68D31A23F07F432F4A93420ED8069B4A
:101C80005A682C4B1B6819461046FFF76BFD02463D
:101C9000069B9B681A44069B1A6017E0254B1A683E
:101CA000069B5B6819461046FFF75CFD0290069B99
:101CB0009A68029B9A4206D9069B9A68029BD21A9E
:101CC000069B1A6002E0069B00221A60069B002217
:101CD0005A60069B00229A60069B01221A74069B9A
:101CE0000022DA610698FFF755FD019B002B7FF477
:101CF00051AF0E4B1A780D4B5B789A427FF44AAF86
:101D00009DF81F30002B04D1074B1A68059B9A429F
:101D100001D0012300E0002303F00103DBB21846E9
:101D200009B05DF804FB00BF383500202C340020DA
:101D30004B3500203C350020FEFF7F0010B588B0F9
:101D40000190274B1B68002B44D0254B1B681B6858
:101D50000793FFF7FFFC0690224B1B68059305993C
:101D60000698FFF7FFFC0346033304931E4B1B78D2
:101D700083F00103DBB2002B01D0FFF7A3FC049A30
:101D8000079B934238BF1346059A13440593059B5E
:101D900023F07F4305930598FFF7F0FCFFF7DAFC8B
:101DA000039006990398FFF7DDFC0346DC1C0699B7
:101DB0000598FFF7D7FC03469C420DD9FFF7CAFCF4
:101DC00003461846FFF7DAFC2F20FFF719FCFFF750
:101DD00097FD01E0FFF796FC00BF08B010BD00BF03
:101DE000383500203C3500204A35002000B587B04A
:101DF0000023019300238DF81730194B1B680493BF
:101E0000184B1B6803936B461846FFF733FE0346D7
:101E10008DF80B309DF80B30002B08D0009B01AAE9
:101E200004991846FFF762FE01238DF81730019BD5
:101E30001846FFF7A5FE0346002B02D001238DF8BC
:101E400017309DF81730002B02D00398FFF776FF6C
:101E5000054B00221A7000BF07B05DF804FB00BFFD
:101E60003C350020383500204B35002082B0034639
:101E70008DF80730034A9DF80730537000BF02B059
:101E8000704700BF2C34002084B00190144B5B7865
:101E900001338DF80F30124B9B789DF80F209A423A
:101EA00002D100238DF80F300D4B1B789DF80F20C9
:101EB0009A4201D100230FE0019B9DF80F201A7078
:101EC000074B5B781A4613465B001344DB00044A59
:101ED000134404330293029B184604B0704700BFBA
:101EE0002C34002000B589B0039002910192009338
:101EF0000023079300238DF816300DF116031846C2
:101F000000F0CEFB0DF117031846FFF7BDFF06905A
:101F1000069B002B02D10423079318E0069B0122A5
:101F20001A70069B039A5A60FFF714FC0246069B40
:101F30009A60069B029ADA60069B019A1A61069BD8
:101F4000009A5A619DF817301846FFF78FFF9DF8E9
:101F50001630184600F0AEFB079B002B01D1FFF7AF
:101F6000D5FC079B184609B05DF804FB00B587B0A7
:101F700001900B468DF803300023059300238DF864
:101F80000E300DF10E03184600F08AFB0DF10F0321
:101F90001846FFF779FF0490049B002B02D104231D
:101FA00005930BE0049B9DF803201A70049B019A93
:101FB0005A609DF80F301846FFF758FF9DF80E3015
:101FC000184600F077FB059B002B01D1FFF79EFC24
:101FD000059B184607B05DF804FB000008B50E4BE2
:101FE0000022C3F840210C4B0022C3F844210A4BC5
:101FF0000022C3F84821084B0022C3F84C21064BAD
:102000000022C3F80021044B0022C3F80421FFF78B
:10201000CDFC00BF08BD00BF0010014008B5FFF7B0
:10202000E5FE00BF08BD000008B5FFF76BFB134BD2
:1020300000221A70114B00225A70104B0B229A701A
:102040000F4B00221A600F4B00221A700E4B002219
:102050001A701420FFF794FA07211420FFF7A8FA4A
:102060001420FFF747FA0020FFF71AFBFFF772FB77
:102070000246064B1A600023184608BD2C34002087
:102080003835002048350020493500203C350020F7
:1020900086B003900B4601928DF80B30134B9B7862
:1020A000002B01D108231EE0019B002B01D1072347
:1020B00019E0039B002B01D1072314E0039B1B684D
:1020C0001B7C002B01D008230DE0039B1B680593AC
:1020D000059B00221A74059B9DF80B205A74059BE2
:1020E000019A5A610023184606B070472C3400202C
:1020F00000B587B0039002910192039B0593144BA6
:102100009B78002B01D108231EE0039B002B01D1FB
:10211000082319E0029B042B01D8072314E0059B38
:102120005B69002B01D108230EE0059B5B7C012B32
:1021300001D1029B00E000230493019B049A0299C1
:102140000598FFF7CFFE0346184607B05DF804FB7D
:102150002C34002000B585B00190019B03930D4BFA
:102160009B78002B01D1082310E0019B002B03D0AA
:10217000039B5B69002B01D1082307E0039B00222E
:102180001A7402210398FFF7F1FE0346184605B0C2
:102190005DF804FB2C34002029DF704700BF18468F
:1021A00028DF704700BF184600B587B001900B4686
:1021B0008DF8033002AB10220021184623F054F9A9
:1021C000019B1B7A012B02D0022B0BD01AE00023BB
:1021D0008DF80830019B1B690493019B9B8AADF825
:1021E00014300FE001238DF80830019B9A89019B80
:1021F000DB89D31A9BB2ADF81030019B9B89ADF8F7
:10220000123000BF019B5B680393019B1B689B68B6
:102210009DF8031002AA1046984700BF07B05DF86A
:1022200004FB000082B00190019B002B09D0019BB0
:10223000064A934205D3019B054A934201D20123EA
:1022400000E00023184602B0704700BFCC2E0020EB
:10225000DC2E002000B585B00190019B9B8A1A46B8
:10226000019BDB8AD31AB3F5806F07DA019B9A8A48
:10227000019BDB8AD31AADF80E3003E04FF4806384
:10228000ADF80E30019B1A69019BDB8A9B00D018C8
:10229000019BDA68019BDB8A9B001344BDF80E208A
:1022A0001946FFF779FF0346184605B05DF804FBB1
:1022B00000B583B00190019B9B891846FFF770FF22
:1022C0000346184603B05DF804FB000000B583B078
:1022D0001F4BD3F8C02013465B001344DB001C4A9D
:1022E000134400931A4BD3F8C430002B2CD0009B1E
:1022F0001B7A012B02D0022B05D009E00098FFF7D2
:10230000A9FF019007E00098FFF7D2FF019002E0DB
:102310000923019300BF019B112B0ED10D4B1B789C
:1023200023F00203DAB20B4B1A700A4B1B7843F00E
:102330000403DAB2074B1A7006E0019B002B03D0AE
:1023400009210098FFF730FF00BF03B05DF804FBE0
:10235000503500204C35002008B50B4B1B7803F09E
:102360000203002B0ED1084B1B7803F00403002B53
:1023700008D1054B1B7843F00203DAB2024B1A7006
:10238000FFF7A4FF00BF08BD4C35002000B585B0A5
:102390000190214BD3F8C430082B01D1002336E043
:1023A0001D4BD3F8C0201C4BD3F8C4301344072B6B
:1023B00007D8194BD3F8C020174BD3F8C4301344B7
:1023C00007E0154BD3F8C020134BD3F8C4301344A7
:1023D000083B0393104BD3F8C43001330E4AC2F8C4
:1023E000C430039A13465B001344DB000A4A1344CB
:1023F00018220021184623F037F8039A13465B0091
:102400001344DB00044A1A44019B1A600123184656
:1024100005B05DF804FB00BF5035002000B587B063
:10242000039002910192ADF80230314B1B7803F01A
:102430000103002B01D1012356E00398FFF7F2FEC0
:10244000034683F00103DBB2002B01D002234BE0F3
:10245000019B002B02D0029B002B01D1032343E000
:10246000019B03F00303002B04D1029B03F0030341
:10247000002B01D0062337E0039B1A68029B9A4287
:1024800008D8039B5A68BDF802309B0002990B44A0
:102490009A4201D2052327E0BDF80230002B01D17A
:1024A000042321E005AB1846FFF770FF034683F0D5
:1024B0000103DBB2002B01D0072315E0059B089A2E
:1024C0005A60059B039A1A60059B01221A72059BAC
:1024D000019ADA60059B029A1A61059BBDF80220F9
:1024E0009A82FFF739FF0023184607B05DF804FB16
:1024F0004C35002000B587B003900291009313463D
:10250000ADF806302C4B1B7803F00103002B01D1F2
:1025100001234DE00398FFF785FE034683F0010396
:10252000DBB2002B01D0022342E0029B002B01D141
:1025300003233DE0029BC3F30B03002B01D00623D2
:1025400036E0039B1A68029B9A4208D8BDF8063011
:102550001B03029A1A44039B5B689A4201D9052324
:1025600026E0BDF80630002B01D1042320E005ABA6
:102570001846FFF70BFF034683F00103DBB2002B85
:1025800001D0072314E0059B009A5A60059B039A2B
:102590001A60059B02221A72059B029A120B92B2D4
:1025A0009A81059BBDF806201A82FFF7D5FE00230D
:1025B000184607B05DF804FB4C35002082B0EFF3FD
:1025C00010830093009B019372B6019B184602B0E2
:1025D000704762B600BF704700B585B00190FFF745
:1025E000EDFF0390164B9B68002B1BD1144B01226F
:1025F0009A60144BD3F88020134B1340104A136099
:10260000104B114AC3F880200E4BD3F884300C4A8B
:1026100053600C4B4FF0FF32C3F88420019B002223
:102620001A7002E0019B01221A70039B002B01D15A
:10263000FFF7CFFF0023184605B05DF804FB00BF8D
:102640001836002000E100E0FC06FFBD00B585B0B3
:1026500003468DF80730104B9B68002B16D09DF871
:102660000730002B12D1FFF7A9FF03900B4A0A4B4A
:102670001B681360094A084B5B685360064B0022D5
:102680009A60039B002B01D1FFF7A3FF002318469C
:1026900005B05DF804FB00BF1836002000E100E043
:1026A00000B583B001900198FFF796FF00BF03B01B
:1026B0005DF804FB00B583B003468DF807309DF844
:1026C00007301846FFF7C2FF00BF03B05DF804FBF8
:1026D00082B00190019B03F00303002B0CBF012388
:1026E0000023DBB2184602B07047000082B00346F8
:1026F0008DF80730054B1A789DF807301343DAB28E
:10270000024B1A7000BF02B0704700BF2436002091
:1027100082B003468DF807309DF90730DB435AB28B
:10272000054B1B785BB213405BB2DAB2024B1A70F6
:1027300000BF02B0704700BF2436002082B00346BD
:102740008DF80730064B1A789DF807301340DBB23E
:10275000002B14BF01230023DBB2184602B07047E0
:102760002436002000B585B00190002303930EE0CD
:102770000A4A039B52F82330002B05D0074A039BDB
:1027800052F8233001989847039B01330393039B2E
:10279000072BEDD900BF05B05DF804FB28360020FB
:1027A00082B001900091019B1B78013B052B5BD807
:1027B00001A252F823F000BFD1270200D92702005E
:1027C000F92702002B2802004B2802006128020092
:1027D000009B00221A7048E0009B01221A70019BA6
:1027E0001A89009B9A81019B9A88009BDA81019B40
:1027F000DA68009B9A6038E0009B02221A70019B05
:102800001A89009B9A81019B9A88009BDA81019B1F
:10281000DA68009B9A60019B1B7C062B0CBF01238E
:102820000023DAB2009B1A741FE0009B03221A7087
:10283000019BDA88009B9A81019B1A89009BDA81AF
:10284000019BDA68009B9A600FE0009B04221A70DB
:10285000019BDA88009B9A81009B0022DA8104E0C8
:10286000009B05221A7000E000BF00BF02B0704755
:1028700082B00190019B9B884FF6FF72934205D076
:10288000019B1B88002B01D0012300E0002303F0F3
:102890000103DBB2184602B07047000000B583B0F8
:1028A0000190019B002B11D00C4B1A68019B9A429E
:1028B0000CD80A4B5A68019B9A4207D30198FFF73C
:1028C00007FF0346002B01D0012300E0002303F0A3
:1028D0000103DBB2184603B05DF804FBCC2E0020E8
:1028E00084B0019000910A2303930023ADF80A30CD
:1028F00021E0BDF80A30144A1B01134404331A685E
:10290000009B9A4212D2BDF80A300F4A1B011344B1
:1029100004331B6803F58052009B9A4206D90023BA
:102920000393019BBDF80A201A8008E0BDF80A3025
:102930000133ADF80A30BDF80A30042BD9D9039B16
:10294000184604B0704700BF4037002082B00190A5
:102950000B46ADF80230019B1A89BDF802301344D2
:102960009BB203339AB2019B1A81019B5A89BDF82D
:102970000230D31A9BB2033B9AB2019B5A8100BF2B
:1029800002B0704700B583B0064B1968002300936E
:102990000223054A0548FFF741FD0346184603B0E8
:1029A0005DF804FB90370020AC5F0400CC2E0020C3
:1029B00000B585B00390002300930223044A0399D5
:1029C0000448FFF72BFD0346184605B05DF804FBED
:1029D000B45F0400CC2E002000B585B00346009102
:1029E000ADF80630009B1B680393039B002B09D0B6
:1029F000039B0293029B5B8803339B00039A13445F
:102A000003931DE0BDF80630184A1B01134404333C
:102A10001B680833039313E0039B02930298FFF7AC
:102A200027FF0346002B04D0009B039A1A60012362
:102A300018E0029B5B8803339B00039A13440393C3
:102A4000BDF80630094A1B01134404331B6803F523
:102A50008052039B9A4204D9039B1B68B3F1FF3F4A
:102A6000DAD10023184605B05DF804FB403700209A
:102A700000B585B001900091019B5B681846FFF797
:102A80000DFF0346002B19D0019B1A89244B1B898B
:102A90009A4213D1019B1A68019B5B689B689A421A
:102AA0000CD1019B5B6819460098FFF719FF03469C
:102AB000002B0CBF01230023DBB22CE0009B002283
:102AC0001A8023E00023029310E0029B0393039BF0
:102AD0009A68019B1B689A4208D1029A019B5A602E
:102AE0000F4B1A89019B1A81012314E0009B1B885C
:102AF00002AA11461846FFF76FFF0346002BE4D1E8
:102B0000009B1B8801339AB2009B1A80009B1B8894
:102B1000042BD7D90023184605B05DF804FB00BF8D
:102B20009837002000B587B003900291019200937E
:102B30000220FFF703FE034683F00103DBB2002B04
:102B400001D002234FE0019B002B02D0009B002B01
:102B500044D1052347E0009B9B88254A1B01134471
:102B60001B78002B33D124E0009B1B680593039B4B
:102B7000002B06D0059B9A88039B1B889A4200D0A5
:102B800017E0029B002B06D0059B1A88029B1B882E
:102B90009A4200D00DE0059B9A68019B1A60009B49
:102BA0001A68019B5A60134B1A89019B1A810023F2
:102BB00019E0009B9B88009A11461846FFF70CFF0E
:102BC0000346002BD0D1009B00221A6000E000BF1A
:102BD000009B9B8801339AB2009B9A80009B9B8844
:102BE000042BB8D90A23184607B05DF804FB00BFD0
:102BF000403700209837002008B51A4BD3F8A8209A
:102C00001346DB009B1A9B00164A13441C2200212A
:102C1000184622F029FC134BD3F8AC30002B16D009
:102C2000104BD3F8A830591C0F4BA3FB01239A0873
:102C300013465B0013445B00CA1A0A4BC3F8A82072
:102C4000084BD3F8AC30013B064AC2F8AC30054B18
:102C5000D3F8AC30002B14BF01230023DBB218469D
:102C600008BD00BF48360020ABAAAAAA82B00190D6
:102C70000C4B5B6C002B12D00A4B1B6CDB00094A1F
:102C80001A44019B1A60074B1B6C013303F00703C6
:102C9000044A1364034B5B6C013B024A536400BF5C
:102CA00002B07047F836002082B00190019B1B787B
:102CB000022B03D0019B1B78032B0DD1084B1B6CFF
:102CC000019A927D1344064A1364054B5B6C019A8A
:102CD000927D9B1A024A536400BF02B0704700BF46
:102CE000F836002000B587B003900291039B1A1DAF
:102CF00000230093012302990848FFF78FFB034646
:102D00000593039B02221A74059B002B01D100231B
:102D100000E00E23184607B05DF804FBCC2E00201F
:102D200000B587B003900291029B03F10801039B59
:102D300003F10C020023009301230C48FFF76EFB04
:102D400003460593039B9B7D002B01D0032200E0EB
:102D50000122039B1A74059B002B01D1002300E084
:102D60000E23184607B05DF804FB00BFCC2E0020F0
:102D700000B587B003900291029B191D039B03F1DC
:102D800008020023009301230B48FFF747FB03468B
:102D90000593039B1B78032B01D1052200E006223B
:102DA000039B1A74059B002B01D1002300E00E2326
:102DB000184607B05DF804FBCC2E002000B587B0A4
:102DC00003900B46ADF80A300023009301230D4A0F
:102DD00003990D48FFF722FB03468DF817309DF845
:102DE0001730002B01D00E2308E0BDF80A30074A47
:102DF0001B0113440E3301221A700023184607B03A
:102E00005DF804FBA85F0400CC2E002040370020B2
:102E100000B589B0019002AB00221A605A609A6036
:102E2000019BDB6802930DF1160202AB11461846B6
:102E3000FFF71EFE0346002B12D0039B0693069B52
:102E40009A88019BDA80069B1A88019B1A81039B52
:102E5000BDF8162011461846FFF7B0FF079001E0B5
:102E60000A230793079B184609B05DF804FB00008E
:102E700000B587B00190019B981D02AA0D4B00215F
:102E8000FFF750FE0590059B002B08D1039A094BD4
:102E90009B8819461046FFF791FF059004E0082231
:102EA0000021044822F0E0FA059B184607B05DF8BF
:102EB00004FB00BFA837002000B587B00390029143
:102EC0000023049304AB1846FFF7D0FE039B9B8AB4
:102ED0009B00029AD118049B1A68049B98880023CF
:102EE000009303461148FFF799FA03460593039BA5
:102EF0009A8A049B9B8813449AB2039B9A82039BF1
:102F00009B7D013BDAB2039B9A75039B9B7D002B53
:102F100002D1039B01221A74059B002B01D10023CF
:102F200000E00E23184607B05DF804FBCC2E00200D
:102F300082B0164B1B8901339AB2144B1A81134B82
:102F400000225A80114B0022DA730023ADF80630BC
:102F500015E0BDF80630BDF806200D4912010A44FF
:102F60001278002A0CBF01220022D1B2074A134472
:102F70000A469A72BDF806300133ADF80630BDF846
:102F80000630042BE5D900BF02B070479837002007
:102F90004037002084B0019000238DF80F300023CB
:102FA000ADF80C302BE0BDF80C30194A13449B7A75
:102FB000002B1FD0BDF80C30154A134400229A7222
:102FC000BDF80C30134A1B0113440C331B88002B33
:102FD00010D1BDF80C300F4A1B0113440E331B787F
:102FE000002B07D0019BBDF80C201A8001238DF81F
:102FF0000F3008E0BDF80C300133ADF80C30BDF8EF
:103000000C30042BCFD99DF80F30184604B0704710
:10301000983700204037002008B5084B05221A7069
:10302000074B02229A80064B1968002301220548AB
:10303000FFF760FA0346184608BD00BF9837002026
:1030400090370020CC2E002000B583B0134B5B8856
:10305000ADF80230BDF80230114A1B0113440C33A5
:103060001B88002B11D1BDF802300D4A1B011344FF
:1030700004331968002301220A48FFF73BFA03468C
:103080000193064B04221A7002E0FFF7C5FF01907E
:10309000019B184603B05DF804FB00BF9837002081
:1030A00040370020CC2E002000B587B0104B5B6865
:1030B0000593104B1A680F4B9B889B001344049395
:1030C000059B5B880333ADF80E30094B03221A7061
:1030D000074B5A68BDF80E10002300930B46049965
:1030E0000548FFF79BF90346184607B05DF804FB57
:1030F0009837002090370020CC2E002000B583B0F8
:103100000A4B5B880A491846FFF766FC0346002B0A
:1031100003D0FFF7C9FF019002E0FFF795FF019090
:10312000019B184603B05DF804FB00BF98370020F0
:103130009C37002008B5084B06221A70064B5B88A6
:10314000064A1B01134404331B681846FFF730FC82
:103150000346184608BD00BF9837002040370020BE
:1031600008B5054B07221A70034B00225A60FFF77F
:1031700009FC0346184608BD9837002008B50D48DD
:10318000FFF708FF034683F00103DBB2002B0BD0EF
:10319000094B00221A70084B00225A80064B00226D
:1031A0005A6041F61D5302E0FFF7A8FF0346184698
:1031B00008BD00BF9A3700209837002082B0094B25
:1031C0005B680193019B5B880333ADF80230064BCB
:1031D0009A88BDF8023013449AB2034B9A8000BF1C
:1031E00002B07047983700209037002082B0124B11
:1031F0001B680193114B5B88114A1B011344043374
:103200001B680D4A13600D4B5B880D4A1B0113446C
:103210000433019A1A60094B5B881846064B99885B
:10322000074A0301134408330A461A80024B02225C
:103230009A8000BF02B07047903700209837002076
:103240004037002008B51A4B1B78072B2CD801A259
:1032500052F823F075320200A9320200A9320200AE
:10326000813202008D32020099320200993202004E
:10327000A1320200FFF75CFE0D4B01221A7014E030
:10328000FFF79CFF0A4B02221A700EE0FFF7AEFF19
:10329000074B06221A7008E0054B07221A7004E05B
:1032A000034B01221A7000E000BF00BF08BD00BF41
:1032B0009837002000B587B0019000910F23059347
:1032C000019B002B04D00120FFF722FA0123A6E086
:1032D000009B1B79032B00F2968001A252F823F089
:1032E000F1320200FF3202007B3302009B33020006
:1032F000FFF748FB0590009B01221A7186E000232E
:103300008DF813300023ADF8103022E0BDF81030F6
:10331000454A1B0113441B78022B15D1BDF8103010
:10332000414A1B01134404331B681846FFF740FB56
:103330000590BDF810303C4A1B01134400221A705E
:1033400001238DF8133008E0BDF810300133ADF8DB
:103350001030BDF81030042BD8D99DF8133083F00D
:103360000103DBB2002B50D00220FFF7BFF9012090
:10337000FFF7CEF941F61D5351E02C4B196800239D
:1033800001222B48FFF7B6F803460593274B02228C
:103390009A80009B00221A7138E0244B1B68184663
:1033A000FFF706FB0590234B5B88ADF80E301F4BF3
:1033B0001B680293BDF80E301B4A1B0113440433F3
:1033C0001B681A4A1360BDF80E30174A1B011344DC
:1033D0000433029A1A60BDF80E30144A9188124ADA
:1033E0001B01134408330A461A80104B02229A80AC
:1033F000BDF80E300C4A1B01134400221A70009BCA
:1034000000221A7102E000BF00E000BF059B002B04
:1034100004D00120FFF77CF90E2300E000231846BA
:1034200007B05DF804FB00BF403700209037002054
:10343000CC2E00209837002000B587B00190009175
:10344000009B5B8A1B013C4A13440493019B002BA5
:1034500007D0009BDB8819460498FFF777FA012311
:1034600065E0049B5A68049B1B899B0013440393EB
:10347000009B1B7C062B4DD801A252F823F000BF05
:10348000C3340200E7340200CF340200DB34020010
:103490009D340200F33402000D350200274B002258
:1034A0005A60009B9B69254A136025492348FFF712
:1034B000DFFA034683F00103DBB2002B01D00A23BD
:1034C00035E003990098FFF70DFC059025E003997E
:1034D0000098FFF725FC05901FE003990098FFF77F
:1034E000EBFC059019E003990098FFF741FC05906B
:1034F00013E0124B5A68124B1B8819461046FFF70F
:103500005DFC0590009B06221A7406E041F61D53EF
:10351000059302E00F23059300BF059B002B05D008
:10352000009BDB8819460498FFF710FA059B1846A4
:1035300007B05DF804FB00BF40370020B037002023
:10354000BC37002000B585B001900091019B002B95
:1035500001D0012323E0009B1B79012B0BD0022B10
:1035600014D0002B16D10098FFF752FC0390009B5B
:1035700002221A7112E00098FFF77AFC0390039B75
:103580000A2B0AD141F61D53039306E041F61D5361
:10359000039303E00F23039300E000BF039B18464F
:1035A00005B05DF804FB000000B585B00190019BFB
:1035B000002B01D001233BE01F4BDB7B002B03D012
:1035C0001D4B0022DA7301E0FFF73CFE1A4B1B781B
:1035D000013B062B28D801A252F823F0F93502004E
:1035E00001360200093602001136020029360200B7
:1035F0001936020021360200FFF7C0FD039016E0E5
:10360000FFF77CFD039012E0FFF74EFD03900EE004
:10361000FFF71AFD03900AE0FFF78CFD039006E028
:10362000FFF79EFD039002E00F23039300BF039B6F
:10363000184605B05DF804FB9837002000B58BB044
:1036400003468DF80730354BD3F8A8201346DB002E
:103650009B1A9B00314A13440893089B1B78013B3B
:10366000052B2ED801A252F823F000BF85360200A8
:103670009536020095360200A5360200A5360200F6
:10368000B53602009DF8073008991846FFF712FE7C
:10369000099019E09DF8073008991846FFF7CCFE0D
:1036A000099011E09DF8073008991846FFF74AFF86
:1036B000099009E09DF807301846FFF775FF09905B
:1036C00002E00F23099300BF099B002B21D0099B27
:1036D00041F61D52934202D10023049304E0099B5A
:1036E00004930898FFF7E0FA03AB19460898FFF730
:1036F00057F803AB1846FFF735F8FFF77DFA034696
:10370000002B03D00020FFF799FF02E00420FEF712
:10371000FFFF00BF0BB05DF804FB00BF4836002080
:1037200000B583B001900B468DF803309DF803304F
:103730001846FFF783FF00BF03B05DF804FB48DFC6
:10374000704700BF184661DF704700BF1846000091
:1037500000B587B0474B1B78DBB283F00103DBB2C7
:10376000002B7CD103E0039B184608F0C0FC03ABA0
:103770001846FFF7E4FF0346002BF4D000238DF832
:1037800017303D4B1B68002B0CBF012300238DF825
:1037900016309DF8173083F00103DBB2002B26D0E2
:1037A000364B1B78DBB2002B5BD102AB1846FFF720
:1037B000C6FF0490049B052B03D101238DF817301D
:1037C00015E0049B002B05D02D4ABC210498FDF781
:1037D000C3FC0CE0029B1846FDF718FB294B1B6845
:1037E000002B04D0274B1B68029A104698479DF87F
:1037F000163083F00103DBB2002B27D01F4B1B7860
:10380000DBB2002B2FD1204B1B88ADF806301F4BAD
:103810001B680DF1060211461846FFF794FF04904D
:10382000049B052B03D101238DF816300EE0049B79
:10383000002B05D0124AE4210498FDF78DFC05E029
:103840000D4B1B68114A1268104698479DF81730B7
:10385000002B9ED09DF81630002B06D199E700BFB3
:1038600004E000BF02E000BF00E000BF07B05DF869
:1038700004FB00BFC8370020D4370020C937002020
:10388000BC5F0400C4370020D0370020CC370020B4
:1038900000B583B00C4B1B68002B0FD00A4B1B6884
:1038A00098470190019B0093009B002B08D0074A8A
:1038B0004FF4EC710098FDF74FFC01E0FFF748FF73
:1038C00000BF03B05DF804FBC0370020BC5F0400FC
:1038D00010B584B00190012000F080F80390039BA4
:1038E000002B0AD100F0BCFB044600F0BFFB0346EE
:1038F000019A1946204600F004F8039B184604B0CC
:1039000010BD00B585B00390029101920299039811
:1039100000F004F800BF05B05DF804FB82B0019030
:103920000091044A019B5361024A009B936100BFCE
:1039300002B07047D837002010B588B004910392C8
:10394000029303468DF81730002306930023079354
:10395000064B5C699DF81700029B0093039B049A39
:103960000799A04700BF08B010BD00BFD83700209E
:1039700082B00190019B184602B0704700B583B039
:10398000034600918DF807309DF8070000230022C0
:103990000099FFF7D1FF00BF03B05DF804FB00B54D
:1039A0008BB002910192009303468DF80F30019B7A
:1039B0000493009B05930C9B06930D9B07930E9B12
:1039C00008930F9B099304AA9DF80F000623029900
:1039D000FFF7B2FF00BF0BB05DF804FB00B583B08A
:1039E00003468DF807300D4B1B78002B07D00C4B8E
:1039F0001B789DF807209A4201D1002309E000F0CE
:103A0000E9FC064B01221A70054A9DF80730137035
:103A10000023184603B05DF804FB00BFF437002014
:103A2000F537002082B000238DF807309DF807306D
:103A3000184602B0704700B589B00190009101238B
:103A40008DF8133000230793009B06930A230593F8
:103A5000019A079B1344069A1946002000F044FC83
:103A60000390079A039B13440793069A039BD31A68
:103A70000693039B002B05D1059B013B0593059BFA
:103A8000002B03D0069B002BE2D100E000BF9DF885
:103A90001330184609B05DF804FB84B00190009122
:103AA000009B002B03DA00238DF80F3008E0019B08
:103AB0001A68009B1A44019B1A6001238DF80F308D
:103AC0009DF80F30184604B07047000000B587B06D
:103AD0000390029101920023049301238DF8173083
:103AE000039B002B20D004230493049B1A46134904
:103AF000029821F08FFC019B1A68049B1A44019BD9
:103B00001A60049B029AD018039B1B680C4A4FF45E
:103B1000807121F041FC049004990198FFF7BDFFEA
:103B200003468DF8173002E0019B00221A609DF8D1
:103B30001730184607B05DF804FB00BF08610400A9
:103B400010610400F0B5D1B004460AA8016009A9CB
:103B50000A6008AA13600DF12F0322461A70002391
:103B60004F930CAB00221A6001238DF83B31FFF715
:103B700059FF0346002B01D0002327E10CAB1B6843
:103B80000DAAD1180CAA0AAB1868FFF79FFF0346CD
:103B900083F00103DBB2002B01D0002316E1569B1A
:103BA000062B00F2E68001A252F823F0C93B020086
:103BB000F73B0200193C0200473C0200813C020036
:103BC000C73C0200173D020009AB186821F0A2FCB7
:103BD00003464F934F9A0CAB1B681344FF2B00F224
:103BE000CA800CAB1B680DAAD0184F9A09AB196894
:103BF00021F010FCBFE00CAB1B680DAAD0180CAB79
:103C00001B68C3F5807108AB1B681B6809AA1268A2
:103C100021F0C2FB4F90AFE00CAB1B680DAAD0188F
:103C20000CAB1B68C3F5807108AB1B681C6808AB44
:103C30001B6804331B6809AA00932346126821F00D
:103C4000ABFB4F9098E00CAB1B680DAAD0180CABE7
:103C50001B68C3F5807408AB1B681D6808AB1B6844
:103C600004331B6808AA12680832116809AA019176
:103C700000932B461268214621F08EFB4F907BE08B
:103C80000CAB1B680DAAD4180CAB1B68C3F5807570
:103C900008AB1B681E6808AB1B6804331B6808AAC6
:103CA00012680832116808AA12680C32106809AA52
:103CB000029001910093334612682946204621F074
:103CC0006BFB4F9058E00CAB1B680DAAD5180CABE2
:103CD0001B68C3F5807608AB1B681F6808AB1B68C0
:103CE00004331B6808AA12680832116808AA12680F
:103CF0000C32106808AA12681032146809AA0394DA
:103D00000290019100933B4612683146284621F00B
:103D100043FB4F9030E00CAB1B680DAAD6180CABE0
:103D20001B68C3F5807708AB1B681B68079308AB5B
:103D30001B6804331B6808AA12680832116808AAB5
:103D400012680C32106808AA12681032146808AAA7
:103D500012681432156809AA04950394029001911F
:103D60000093079B12683946304621F015FB4F90AF
:103D700002E000BF00E000BF0CAB4F991846FFF710
:103D80008CFE03468DF83B310CAB1B6804334D931E
:103D90009DF83B31002B18D04D9BB3F5807F14D894
:103DA0000CAB1B680DAA134404220A49184621F0E3
:103DB00031FB0CAB4D9A1A600CAB1A680DAB114677
:103DC0001846FFF738FE034600E00023184651B0BE
:103DD000F0BD00BF0861040084B0034600918DF877
:103DE0000730022303931DE09DF80720039B9B00EF
:103DF00042FA03F3DBB203F00F038DF80B30039BA1
:103E0000C3F10103009A1A449DF80B30092B04D921
:103E10009DF80B303733DBB203E09DF80B303033C5
:103E2000DBB21370039B5A1E0392002BDCD100BF40
:103E300004B0704710B5D0B0044602A8016001A9D3
:103E40000A606A4613600DF10F0322461A7004AB34
:103E500000221A606B461B684B93539A559B134480
:103E6000499302AB1B68002B01D00A2300E000231A
:103E70004893FFF7D7FD0346002B02D06B461B6823
:103E8000E8E06B461B68002B2AD104AB1B6805AA2F
:103E9000D11804AA02AB1868FFF718FE034683F096
:103EA0000103DBB2002B02D06B461B68D2E001ABF2
:103EB000186821F02FFB4790479BC22B28BFC223D5
:103EC000479304AB1B6805AAD01801AB479A196841
:103ED00021F0A0FA04AB1A68479B1A4404AB1A609D
:103EE00004AB1B684693469A489B13443133459371
:103EF00005AA469B13444F9305AA459B13444E9332
:103F000000234A9308E04F9B20221A704F9B0133F5
:103F10004F934A9B01334A934A9A489B9A42F2D361
:103F200000234C934FE04B9A499B9A4214D34F9BEA
:103F30005A1C4F9220221A704F9B5A1C4F922022DB
:103F40001A704F9B5A1C4F9220221A704E9B5A1C7B
:103F50004E9220221A7033E04B9A539B9A4206D21B
:103F6000529A4B9B13441B788DF8373107E04B9ADC
:103F7000539BD31A549A13441B788DF837319DF80C
:103F800037314F991846FFF727FF4F9B02334F9366
:103F90004F9B5A1C4F9220221A704E9C631C4E93CA
:103FA0009DF83731184621F02BF90346002B02D03B
:103FB0009DF8373100E02E2323704B9B01334B9348
:103FC0004C9B01334C934C9B0F2BACD94E9B5A1CF2
:103FD0004E920D221A704E9B5A1C4E920A221A7053
:103FE0004F9B5A1C4F9220221A7004AB1A68489BB0
:103FF000134403F1430204AB1A6004AB1B6805AA27
:10400000134404221549184621F004FA04AB1B6836
:104010001A1D04AB1A6004AB1A6805AB11461846AA
:10402000FFF709FD034683F00103DBB2002B01D04B
:104030004B9B0FE0FFF7F6FC0346002B01D04B9B98
:1040400008E004AB00221A604B9A499B9A42FFF4A5
:1040500047AF4B9B184650B010BD00BF086104002D
:10406000014B1846704700BF453B0200014B184604
:10407000704700BF353E020086B00190164B059395
:10408000164B04931FE0049A059BD31ADB10DA0F3A
:1040900013445B10DB00059A13440393039B1B68D6
:1040A0000293029A019B9A4202D9039B04930AE06D
:1040B000029A019B9A4203D2039B0833059302E0C4
:1040C000039B5B6804E0059A049B9A42DBD30023C0
:1040D000184606B0704700BF206404001065040055
:1040E00000B583B01F4B0193019B02221A61019B13
:1040F00002225A61019B1C4A9A61019B1B4ADA61A8
:10410000019B4FF400621A62019B00229A62019B9C
:1041100000225A62019B0022DA62019B124A9A64D1
:10412000019B134ADA64019B10221A65019B00224D
:104130009A65019B00225A65019B0022DA65019B6A
:1041400007330C49184621F0C3F9019B0A49184668
:1041500021F0BEF9019B20229A7100BF03B05DF8E7
:1041600004FB00BF0840002010650400F837002061
:10417000F83F00201C6504002065040000B589B0EC
:1041800003900291019200230693039BDB68059341
:10419000039B1B690493049A059B9A4205D9049AD0
:1041A000059BD31A013B079307E0039B9A68049988
:1041B000059BCB1A1344013B0793039B9A68059B0D
:1041C000D31A079A934228BF13460793079A019B75
:1041D000934228BF13460793039B5A68059B1344D9
:1041E000079A0299184621F015F9069A079B13447D
:1041F0000693029A079B13440293019A079BD31AD2
:104200000193059A079B13440593039B9A68059BAA
:104210009A4201D100230593039B059ADA60019B22
:10422000002BB5D1069B184609B05DF804FB00B51C
:1042300089B0039002910192039BDB680793039B73
:104240009A68079BD31A0693069A019B9A420ED945
:10425000039B5A68079B1344019A0299184621F060
:10426000D9F8079A019B1A44039BDA601AE0069B6F
:104270000593039B5A68079B1344059A02991846B5
:1042800021F0C8F8019A069BD31A0593039B58683E
:10429000029A069B1344059A194621F0BBF8039B2A
:1042A000059ADA6000BF09B05DF804FB86B00190A2
:1042B000019B1B690493019BDB680393049A039B96
:1042C0009A4208D8019B9A68039BD21A049B134414
:1042D000013B059304E0049A039BD31A013B059329
:1042E000059B184606B0704700B589B0039002914F
:1042F0000192029B0693039B5A1C13465B001344D6
:10430000DB001F4A13440593059B5B69012B17D003
:10431000012B02D3022B23D029E00598FFF7C6FF1B
:104320000490049A019B9A4202D20023079321E051
:10433000019B0793019A06990598FFF778FF19E00A
:104340000598FFF7B3FF0490019A049B934228BF9E
:1043500013460793079A06990598FFF768FF09E047
:10436000019A06990598FFF709FF079002E00023DC
:10437000079300BF079B184609B05DF804FB00BF18
:104380000840002000B589B0039002910192104BC3
:104390001B78002B01D1FFF7A3FE00230693002317
:1043A0008DF817300DF117031846FEF779F9019AC9
:1043B00002990398FFF798FF0790069B9DF8173026
:1043C0001846FEF777F9079B184609B05DF804FB1D
:1043D0000840002008B5044B1B78002B01D1FFF7E3
:1043E0007FFE00BF08BD00BF0840002000B585B0BB
:1043F00001900B468DF80330019B9B680393039B50
:104400005A1C019B5B689A420FD8019B1A68039B58
:1044100013449DF803201A70039B5A1C019B9A6059
:10442000019BDB685A1C019BDA60019B9A68019B27
:104430005B689A4215D1019B1869019B1968019B21
:104440009B681A46FFF79EFF0246019B9B689A42B3
:1044500004D0019B4FF0FF32DA6002E0019B0022A2
:104460009A6000BF05B05DF804FB000000B58BB09A
:104470000390029101920093029B089301230993F8
:104480000123079307E0089A019BB2FBF3F308931B
:10449000079B01330793089A019B9A42F3D2009A33
:1044A000079B9A4201D9009B07930D9B03F00103E0
:1044B000002B28D10C9B002B25D00D9B03F0020371
:1044C000002B06D0009B002B03D130238DF81B302E
:1044D00002E020238DF81B300CE00C9B013B0C9379
:1044E0009DF81B3019460398FFF780FF039BDB689C
:1044F000002B07DB0C9B002B05D0079A0C9B9A42E4
:10450000EBD300E000BF039BDB68002B55DB009B77
:10451000012B03D9009B013B009309E0029A099B00
:10452000B2FBF3F30593059A019B9A4200D205E092
:10453000099B019A02FB03F30993E8E7029A099B9E
:10454000B2FBF3F30593059B099A02FB03F3029A6E
:10455000D31A02931B4A059B13441B7819460398F0
:10456000FFF744FF039BDB68002B08DB099A019BE4
:10457000B2FBF3F30993099B002BDFD100E000BFEE
:104580000D9B03F00103002B17D00C9B002B14D0C4
:104590000AE00C9B013B0C9320210398FFF726FFB8
:1045A000039BDB68002B07DB0C9B002B05D0079AD5
:1045B0000C9B9A42EDD300E000BF00BF0BB05DF84A
:1045C00004FB00BF2865040000B589B00590049184
:1045D00003920293049B002BB8BF5B420693012316
:1045E000079307E0039B069A92FBF3F30693079B5E
:1045F00001330793039B069A9A42F3DA029A079BC8
:104600009A4201D9029B07930A9B002B0AD0049B74
:10461000002B04DB0B9B03F00403002B02D00A9B4E
:10462000013B0A930B9B03F00203002B02D0029B79
:10463000002B1CD00B9B03F00103002B17D10A9B0E
:10464000002B14D00AE00A9B013B0A932021059815
:10465000FFF7CCFE059BDB68002B07DB0A9B002BDA
:1046600005D0079A0A9B9A42EDD300E000BF059B54
:10467000DB68002B4ADB049B002B07DA049B5B42C0
:1046800004932D210598FFF7B1FE08E00B9B03F082
:104690000403002B03D02B210598FFF7A7FE059BF1
:1046A000DB68002B32DB0B9B03F00203002B1FD0D7
:1046B0000B9B03F00103002B1AD1029B002B17D197
:1046C0000A9B002B14D00AE00A9B013B0A9330217D
:1046D0000598FFF78BFE059BDB68002B07DB0A9B29
:1046E000002B05D0079A0A9B9A42EDD300E000BF49
:1046F000059BDB68002B09DB04990B9B01930A9B4C
:104700000093029B039A0598FFF7B0FE00BF09B023
:104710005DF804FB00B5A3B005900491039206ABCD
:1047200016934023179300231893059B1A93002395
:104730001993049B1B788DF88730049B01330493F5
:104740009DF88730002B00F059819DF88730252B8C
:1047500040F0488100231E9301232093049B1B7883
:104760008DF887309DF88730233B0D2B3ED801A272
:1047700052F823F0DD470200ED470200ED4702004A
:10478000ED470200ED470200ED470200ED47020051
:10479000ED470200CD470200ED470200AD470200A1
:1047A000ED470200ED470200BD4702001E9B43F0AB
:1047B00001031E93049B013304931AE01E9B43F0F4
:1047C00002031E93049B0133049312E01E9B43F0EB
:1047D00004031E93049B013304930AE01E9B43F0E1
:1047E00008031E93049B0133049302E000232093EB
:1047F00000BF209B002BB1D100231D93049B1B788D
:104800008DF887309DF887302F2B12D99DF887308F
:10481000392B0ED8049B013304931D9A13469B0039
:1048200013445B001A469DF887301344303B1D93B8
:10483000E4E700231F93049B1B788DF887309DF8D5
:1048400087302E2B1DD1049B01330493049B1B78CE
:104850008DF887309DF887302F2B12D99DF887303F
:10486000392B0ED8049B013304931F9A13469B00E7
:1048700013445B001A469DF887301344303B1F9366
:10488000E4E7049B1B788DF887309DF887306C2B0C
:1048900003D09DF88730682B07D1049B1B788DF8D7
:1048A0008730049B01330493EFE79DF88730642B36
:1048B00027D0642B07DC582B47D0632B0FD0252B38
:1048C00000F086808AE0732B51D0732B02DC702BB2
:1048D0006CD083E0752B26D0782B36D07EE0039BFE
:1048E0001B68191D039A11601B682093209B8DF88B
:1048F0006F309DF86F2016AB11461846FFF776FD16
:104900006CE0039B1B68191D039A11601B682093C0
:1049100016A81E9B01931D9B00931F9B0A222099A2
:10492000FFF752FE5AE0039B1B68191D039A1160A2
:104930001B682093209916A81E9B01931D9B009332
:104940001F9B0A22FFF792FD48E0039B1B68191D7D
:10495000039A11601B682093209916A81E9B01934F
:104960001D9B00931F9B1022FFF780FD36E0039BE9
:104970001B68191D039A11601B681C931C9B1B78F4
:104980008DF887301C9B01331C939DF88730002BDA
:104990000AD09DF8872016AB11461846FFF726FD72
:1049A000199B002BEADA19E000BF17E0039B1B6894
:1049B000191D039A11601B682093209916A80023E3
:1049C00001930823009308231022FFF74FFD05E011
:1049D00016AB25211846FFF709FD00BF049B0133E4
:1049E000049306E09DF8872016AB11461846FFF7A2
:1049F000FDFC199B002BBFF69CAE00E000BF199B8D
:104A0000002B0CDD189B002B05D0189A06AB19461D
:104A10000598FFF7B7FC199B189A13441993199B33
:104A2000184623B05DF804FB0EB400B584B00190C5
:104A300006AB039303AB1A4605990198FFF76AFE8C
:104A40000346184604B05DF804EB03B0704743DF3B
:104A5000704700BF184600B591B0039002910192D3
:104A600004AB10220399184620F0D4FC04AB103399
:104A700010220299184620F0CDFC04AB1846FFF72F
:104A8000E6FF04AB203310221946019820F0C2FC47
:104A900000BF11B05DF804FB84B003900291019255
:104AA000ADF8023015E0BDF80230013BADF8023040
:104AB000BDF80230039A1344BDF8022002990A445B
:104AC0001178BDF802200198024412784A40D2B20F
